:020000040800F2
:1000000000500020A510000821100008271000084B
:100010002D100008331000083910000800000000FF
:100020000000000000000000000000003F10000879
:100030004B10000800000000571000086310000873
:10004000ED100008ED100008ED100008ED1000089C
:10005000ED100008ED100008ED100008ED1000088C
:10006000ED100008ED100008ED10000871100008F8
:10007000ED100008ED100008ED100008ED1000086C
:10008000ED100008ED10000885100008ED100008C4
:10009000ED100008ED100008ED100008ED1000084C
:1000A000ED100008ED100008ED100008ED1000083C
:1000B000ED100008ED100008ED100008ED1000082C
:1000C000ED100008ED100008ED100008ED1000081C
:1000D000ED100008ED100008ED100008ED1000080C
:1000E000ED100008ED100008ED1000080000000001
:1000F0000000000000000000000000000000000000
:0C01000000000000000000005FF808F1A3
:10010C0010B5054C237833B9044B13B10448AFF345
:10011C0000800123237010BD24000020000000008B
:10012C008442000808B5034B1BB103490348AFF3E5
:10013C00008008BD00000000280000208442000858
:10014C0080F0004002E000BF81F0004142001FBF80
:10015C005FEA410392EA030F7FEA226C7FEA236C89
:10016C006AD04FEA1262D2EB1363C1BFD21841407E
:10017C0048404140B8BF5B42192B88BF704710F014
:10018C00004F40F4000020F07F4018BF404211F0B7
:10019C00004F41F4000121F07F4118BF494292EA1F
:1001AC00030F3FD0A2F1010241FA03FC10EB0C004B
:1001BC00C3F1200301FA03F100F0004302D54942D8
:1001CC0060EB4000B0F5000F13D3B0F1807F06D385
:1001DC0040084FEA310102F10102FE2A51D2B1F17D
:1001EC00004F40EBC25008BF20F0010040EA030072
:1001FC007047490040EB0000013A28BFB0F5000FF2
:10020C00EDD2B0FA80FCACF1080CB2EB0C0200FAA7
:10021C000CF0AABF00EBC25052421843BCBFD040F6
:10022C001843704792F0000F81F4000106BF80F470
:10023C0000000132013BB5E74FEA41037FEA226C33
:10024C0018BF7FEA236C21D092EA030F04D092F0FE
:10025C00000F08BF0846704790EA010F1CBF002032
:10026C00704712F07F4F04D1400028BF40F000408F
:10027C00704712F100723CBF00F50000704700F0AF
:10028C00004343F0FE4040F4000070477FEA2262D6
:10029C0016BF08467FEA23630146420206BF5FEAA7
:1002AC00412390EA010F40F4800070474FF00003A7
:1002BC0004E000BF10F0004348BF40425FEA000C6E
:1002CC0008BF704743F0964301464FF000001CE016
:1002DC0050EA010208BF70474FF000030AE000BF6C
:1002EC0050EA010208BF704711F0004302D54042AA
:1002FC0061EB41015FEA010C02BF8446014600201C
:10030C0043F0B64308BFA3F18053A3F50003BCFA36
:10031C008CF2083AA3EBC25310DB01FA02FC6344E3
:10032C0000FA02FCC2F12002BCF1004F20FA02F2EA
:10033C0043EB020008BF20F00100704702F12002DD
:10034C0001FA02FCC2F1200250EA4C0021FA02F23E
:10035C0043EB020008BF20EADC7070474FF0FF0C43
:10036C001CEAD0521EBF1CEAD15392EA0C0F93EA3E
:10037C000C0F6FD01A4480EA010C400218BF5FEAE0
:10038C0041211ED04FF0006343EA501043EA511153
:10039C00A0FB01310CF00040B1F5000F3EBF49004D
:1003AC0041EAD3715B0040EA010062F17F02FD2A51
:1003BC001DD8B3F1004F40EBC25008BF20F0010034
:1003CC00704790F0000F0CF0004C08BF49024CEA4B
:1003DC00502040EA51207F3AC2BFD2F1FF0340EADD
:1003EC00C250704740F400004FF00003013A5DDC4E
:1003FC0012F1190FDCBF00F000407047C2F100028F
:10040C00410021FA02F1C2F1200200FA02FC5FEA7B
:10041C00310040F1000053EA4C0308BF20EADC70C5
:10042C00704792F0000F00F0004C02BF400010F437
:10043C00000F013AF9D040EA0C0093F0000F01F0E4
:10044C00004C02BF490011F4000F013BF9D041EA06
:10045C000C018FE70CEAD15392EA0C0F18BF93EA08
:10046C000C0F0AD030F0004C18BF31F0004CD8D132
:10047C0080EA010000F00040704790F0000F17BFB9
:10048C0090F0004F084691F0000F91F0004F14D0FF
:10049C0092EA0C0F01D142020FD193EA0C0F03D157
:1004AC004B0218BF084608D180EA010000F000405A
:1004BC0040F0FE4040F40000704740F0FE4040F435
:1004CC00400070474FF0FF0C1CEAD0521EBF1CEAD4
:1004DC00D15392EA0C0F93EA0C0F69D0A2EB0302F2
:1004EC0080EA010C49024FEA402037D04FF080538C
:1004FC0043EA111143EA10130CF000408B4238BF51
:10050C005B0042F17D024FF4000C8B4224BF5B1A5E
:10051C0040EA0C00B3EB510F24BFA3EB510340EAAC
:10052C005C00B3EB910F24BFA3EB910340EA9C005A
:10053C00B3EBD10F24BFA3EBD10340EADC001B01CA
:10054C0018BF5FEA1C1CE0D1FD2A3FF650AF8B426E
:10055C0040EBC25008BF20F0010070470CF0004C7B
:10056C004CEA50207F32C2BFD2F1FF0340EAC250A6
:10057C00704740F400004FF00003013A37E792F067
:10058C00000F00F0004C02BF400010F4000F013AC5
:10059C00F9D040EA0C0093F0000F01F0004C02BFC0
:1005AC00490011F4000F013BF9D041EA0C0195E729
:1005BC000CEAD15392EA0C0F08D142027FF47DAFC2
:1005CC0093EA0C0F7FF470AF084676E793EA0C0FB2
:1005DC0004D14B023FF44CAF08466EE730F0004CB0
:1005EC0018BF31F0004CCAD130F000427FF45CAF40
:1005FC0031F000437FF43CAF5FE700BF4FF0FF3CAE
:10060C0006E000BF4FF0010C02E000BF4FF0010C00
:10061C004DF804CD4FEA40024FEA41037FEA226CC9
:10062C0018BF7FEA236C11D001B052EA530C18BFEB
:10063C0090EA010F58BFB2EB030088BFC81738BF50
:10064C006FEAE17018BF40F0010070477FEA226C3E
:10065C0002D15FEA402C05D17FEA236CE4D15FEA3A
:10066C00412CE1D05DF8040B704700BF844608466E
:10067C006146FFE70FB5FFF7C9FF002848BF10F12F
:10068C00000F0FBD4DF808EDFFF7F4FF0CBF012074
:10069C0000205DF808FB00BF4DF808EDFFF7EAFFFE
:1006AC0034BF012000205DF808FB00BF4DF808EDB9
:1006BC00FFF7E0FF94BF012000205DF808FB00BFAE
:1006CC004DF808EDFFF7D2FF94BF012000205DF834
:1006DC0008FB00BF4DF808EDFFF7C8FF34BF012041
:1006EC0000205DF808FB00BF80B500AF00F0BEFF36
:1006FC0000F036F800F0ACFA00F08CFA00F08CF850
:10070C0000F024FA00F072F900F0E2F800F0BAF907
:10071C0000F0DAFE00F03CFF0F4800F07BFE00F02A
:10072C0073FF00F033FE0D4803F036FC00F0DAFCEA
:10073C0003F05EFC00F046FF00F06CFF00F02CFEB6
:10074C0000F0F4FC00F02EFD03F00AFD03F062FC57
:10075C0003F0B0FCEEE700BF40000020FC000020DE
:10076C0080B594B000AF07F1280328220021184669
:10077C0003F056FD07F1140300221A605A609A60C8
:10078C00DA601A613B1D00221A605A609A60DA60C6
:10079C000123BB624FF48033FB6200233B630123D4
:1007AC00BB6302237B644FF48033BB644FF4E013D0
:1007BC00FB6407F12803184602F0E4F80346002B0B
:1007CC0001D000F090FA0F237B610223BB61002360
:1007DC00FB614FF480633B6200237B6207F11403DF
:1007EC000221184602F050FB0346002B01D000F00A
:1007FC007AFA02237B604FF40043FB603B1D1846E2
:10080C0002F09EFC0346002B01D000F06CFA00BFF6
:10081C005037BD4680BD000080B584B000AF3B1D95
:10082C0000221A605A609A60274B284A1A60264B9D
:10083C004FF480729A60244B01221A73224B0022CF
:10084C001A75214B4FF46022DA611F4B00225A605B
:10085C001D4B03221A611C4800F06AFF0346002B53
:10086C0001D000F040FA00237B600123BB6007231A
:10087C00FB603B1D1946144801F0EAF90346002BB6
:10088C0001D000F030FA02237B600223BB603B1DD9
:10089C0019460D4801F0DCF90346002B01D000F09D
:1008AC0022FA04237B600323BB603B1D19460648D8
:1008BC0001F0CEF90346002B01D000F014FA00BF72
:1008CC001037BD4680BD00BF400000200024014011
:1008DC0080B592B000AF07F1400300221A605A6055
:1008EC0007F1240300221A605A609A60DA601A61D8
:1008FC005A619A613B1D20220021184603F090FC9E
:10090C00384B394A1A60374B47225A60354B002214
:10091C009A60344B6422DA60324B00221A61314BFC
:10092C0000225A612F4B80229A612E4802F058FD0A
:10093C000346002B01D000F0D6F900233B640023C2
:10094C007B6407F140031946264803F075FA034609
:10095C00002B01D000F0C7F960237B620023BB623F
:10096C000023FB6200233B6300237B630023BB63F8
:10097C000023FB6307F1240304221946194802F0F3
:10098C0021FE0346002B01D000F0ADF907F1240342
:10099C0008221946134802F015FE0346002B01D01D
:1009AC0000F0A1F900237B600023BB600023FB60F7
:1009BC0000233B6100237B614FF40053BB61002398
:1009CC003B623B1D1946074803F094FA0346002B83
:1009DC0001D000F088F9034800F08EFA00BF4837C8
:1009EC00BD4680BDB4000020002C014080B586B00F
:1009FC0000AF07F1080300221A605A609A60DA60AF
:100A0C003B4600221A605A601D4B4FF080421A6020
:100A1C001B4B47225A601A4B00229A60184B4FF618
:100A2C00FF72DA60164B00221A61154B00229A6194
:100A3C00134802F03BFC0346002B01D000F053F9A5
:100A4C004FF48053BB6007F1080319460C4802F0C1
:100A5C007BFE0346002B01D000F045F900233B60E0
:100A6C0000237B603B461946054803F0E5F9034635
:100A7C00002B01D000F037F900BF1837BD4680BD00
:100A8C00FC00002080B58AB000AF07F120030022E3
:100A9C001A605A603B1D00221A605A609A60DA6034
:100AAC001A615A619A61274B274A1A60254B4722D3
:100ABC005A60244B00229A60224B6422DA60214B4C
:100ACC0000221A611F4B80229A611E4802F088FC9A
:100ADC000346002B01D000F006F900233B620023F3
:100AEC007B6207F120031946164803F0A5F903466B
:100AFC00002B01D000F0F7F860237B600023BB6073
:100B0C000023FB6000237B613B1D042219460D482A
:100B1C0002F058FD0346002B01D000F0E4F83B1D19
:100B2C0008221946074802F04DFD0346002B01D060
:100B3C0000F0D9F8034800F0DFF900BF2837BD46B4
:100B4C0080BD00BF440100200004004080B58AB085
:100B5C0000AF07F1200300221A605A603B1D0022EF
:100B6C001A605A609A60DA601A615A619A61274B6E
:100B7C00274A1A60254B47225A60244B00229A6060
:100B8C00224B6422DA60214B00221A611F4B802217
:100B9C009A611E4802F024FC0346002B01D000F0A1
:100BAC00A2F800233B6200237B6207F12003194665
:100BBC00164803F041F90346002B01D000F093F8DE
:100BCC0060237B600023BB600023FB6000237B6100
:100BDC003B1D002219460D4802F0F4FC0346002B85
:100BEC0001D000F080F83B1D04221946074802F0A2
:100BFC00E9FC0346002B01D000F075F8034800F027
:100C0C007BF900BF2837BD4680BD00BF8C0100209A
:100C1C000008004080B582B000AF0C4B5B690B4AFA
:100C2C0043F001035361094B5B6903F001037B60E3
:100C3C007B68002200210B2001F0E3FA0B2001F06D
:100C4C00FCFA00BF0837BD4680BD00BF0010024053
:100C5C0080B588B000AF07F1100300221A605A600B
:100C6C009A60DA60194B9B69184A43F02003936130
:100C7C00164B9B6903F02003FB60FB68134B9B69CD
:100C8C00124A43F004039361104B9B6903F0040375
:100C9C00BB60BB680D4B9B690C4A43F00803936126
:100CAC000A4B9B6903F008037B607B6838233B612C
:100CBC0000237B610023BB6107F110031946044834
:100CCC0001F0C4FC00BF2037BD4680BD00100240BF
:100CDC00000C014080B483B000AF786000BF0C37CB
:100CEC00BD4680BC704780B400AF72B600BFFEE753
:100CFC0080B485B000AF154B9B69144A43F00103D7
:100D0C009361124B9B6903F00103BB60BB680F4BF3
:100D1C00DB690E4A43F08053D3610C4BDB6903F063
:100D2C0080537B607B680A4B5B68FB60FB6823F03D
:100D3C00E063FB60FB6843F00073FB60044AFB68F4
:100D4C00536000BF1437BD4680BC70470010024092
:100D5C000000014080B588B000AF786007F1100347
:100D6C0000221A605A609A60DA607B681B682C4A11
:100D7C00934251D12B4B9B692A4A43F400739361E4
:100D8C00284B9B6903F40073FB60FB68254B9B6944
:100D9C00244A43F004039361224B9B6903F0040340
:100DAC00BB60BB6815233B6103237B6107F1100318
:100DBC0019461D4801F04AFC1C4B1D4A1A601B4B7E
:100DCC0000225A60194B00229A60184B8022DA607C
:100DDC00164B4FF480721A61144B4FF480625A61B7
:100DEC00124B20229A61114B0022DA610F4801F05C
:100DFC003FFA0346002B01D0FFF775FF7B680B4AC7
:100E0C001A620A4A7B68536200220121122001F007
:100E1C00F8F9122001F011FA00BF2037BD4680BD51
:100E2C000024014000100240000801407000002026
:100E3C000800024080B487B000AF78607B681B6804
:100E4C001B4A93420CD11B4B9B691A4A43F4006317
:100E5C009361184B9B6903F400637B617B6922E00F
:100E6C007B681B68144A93420CD1124BDB69114A04
:100E7C0043F00203D3610F4BDB6903F002033B61C8
:100E8C003B6910E07B681B680C4A93420BD1094B01
:100E9C00DB69084A43F00403D361064BDB6903F0BA
:100EAC000403FB60FB6800BF1C37BD4680BC704769
:100EBC00002C0140001002400004004000080040DB
:100ECC0080B485B000AF78607B681B68B3F1804F4D
:100EDC000BD1084BDB69074A43F00103D361054B87
:100EEC00DB6903F00103FB60FB6800BF1437BD46F0
:100EFC0080BC70470010024080B58AB000AF7860AB
:100F0C0007F1180300221A605A609A60DA607B6855
:100F1C001B683A4A934219D1394B9B69384A43F0C2
:100F2C0004039361364B9B6903F004037B617B697B
:100F3C004FF4C063BB610223FB6102237B6207F1A8
:100F4C00180319462F4801F081FB52E07B681B689F
:100F5C002D4A934230D12A4B9B69294A43F0040312
:100F6C009361274B9B6903F004033B613B69244B62
:100F7C009B69234A43F008039361214B9B6903F05F
:100F8C000803FB60FB688023BB610223FB61022327
:100F9C007B6207F1180319461A4801F057FB01232D
:100FAC00BB610223FB6102237B6207F11803194624
:100FBC00164801F04BFB1CE07B681B68144A9342FB
:100FCC0017D10F4B9B690E4A43F0080393610C4BEE
:100FDC009B6903F00803BB60BB68C023BB610223A1
:100FEC00FB6102237B6207F118031946074801F0E5
:100FFC002DFB00BF2837BD4680BD00BF002C014033
:10100C00001002400008014000040040000C0140A8
:10101C000008004080B400AFFEE780B400AFFEE7EC
:10102C0080B400AFFEE780B400AFFEE780B400AF41
:10103C00FEE780B400AF00BFBD4680BC704780B4F3
:10104C0000AF00BFBD4680BC704780B400AF00BF8E
:10105C00BD4680BC704780B500AF00F04DFB00BFB3
:10106C0080BD000080B500AF024801F0BBF900BFA5
:10107C0080BD00BF7000002080B500AF024800F0BA
:10108C000DFD00BF80BD00BF4000002080B400AF4C
:10109C0000BFBD4680BC7047FFF7F8FF0B480C49FA
:1010AC000C4A002302E0D458C4500433C4188C42B8
:1010BC00F9D3094A094C002301E013600432A2421F
:1010CC00FBD303F0B5F8FFF70FFB704700000020CF
:1010DC0024000020C8420008240000200C0200203C
:1010EC00FEE7000080B500AF08210D4802F0C8F9FA
:1010FC0004210B4802F0C4F904210A4802F0C0F99B
:10110C000021084802F0BCF90821074802F0B8F9A0
:10111C000421054802F0B4F902F0D8FF00BF80BDED
:10112C00B40000208C0100204401002080B500AFE9
:10113C0000F002FA194B1B78013B052B26D801A2B3
:10114C0052F823F081110008711100087911000880
:10115C00911100088911000869110008104B012237
:10116C001A7017E00E4B02221A7013E00C4B03227C
:10117C001A700FE00A4B04221A700BE0084B052280
:10118C001A7007E0064B06221A7003E0044B072284
:10119C001A7000BF02F0BCFF00BF80BDE20100204E
:1011AC00D401002080B500AF734B1B78013B062B9C
:1011BC0000F2DF8001A252F823F000BFE511000815
:1011CC00211200085D12000899120008D5120008BF
:1011DC00111300084D130008684B1B6800225A635A
:1011EC00664B1B6800229A63654B1B680022DA630E
:1011FC00644B1B6800229A63022002F0DFFE624BF4
:10120C009A785F4B1B689A635F4B9A785D4B1B68AF
:10121C00DA63AFE0594B1B6800225A63584B1B68CA
:10122C000022DA63574B1B6800229A63554B1B68EC
:10123C000022DA63022002F0C1FE534B9A784F4B26
:10124C001B689A63504B9A784D4B1B689A6391E0DC
:10125C004A4B1B6800225A634A4B1B680022DA6314
:10126C00474B1B6800229A63454B1B680022DA63CC
:10127C00022002F0A3FE444B9A78404B1B689A6301
:10128C00414B9A783F4B1B689A6373E03D4B1B684C
:10129C000022DA63394B1B6800229A63374B1B68B8
:1012AC0000225A63364B1B6800229A63022002F01C
:1012BC0085FE354B9A78324B1B68DA63324B9A7841
:1012CC00304B1B689A6355E02D4B1B6800229A63C8
:1012DC002A4B1B6800229A632A4B1B6800229A63D4
:1012EC00284B1B680022DA63052002F067FE264BB0
:1012FC009A78234B1B68DA63234B9A781F4B1B6835
:10130C005A6337E01E4B1B6800229A631C4B1B6808
:10131C000022DA63194B1B6800229A63194B1B6875
:10132C0000229A63022002F049FE174B9A78154B63
:10133C001B68DA63144B9A78104B1B685A6319E0DC
:10134C000F4B1B680022DA630D4B1B6800229A635B
:10135C000C4B1B680022DA630A4B1B6800229A6351
:10136C00064B1B6800229A63044B1B6800225A63CD
:10137C0000E000BF00BF80BDD40100208C01002024
:10138C00B400002044010020E401002080B400AF30
:10139C0000BFBD4680BC704780B584B000AF164B13
:1013AC001B88FB81FB891846FEF780FF0346134917
:1013BC001846FFF787F8034611491846FEF7CEFF8B
:1013CC000346BB600F49B868FFF77CF803467B60A7
:1013DC000D497868FEF7B8FE03460C491846FFF72E
:1013EC0071F803461A460A4B1A60094B1B681846DB
:1013FC001037BD4680BD00BFDC01002000F07F45EA
:10140C0033335340C3F5283F000020400AD7233D17
:10141C00D801002080B582B000AF78600322044967
:10142C00786800F05DFA00BF0837BD4680BD00BF8C
:10143C00DC01002080B400AF094BDB68084A43F0A4
:10144C008073D360074B00225A60064B1B68054A19
:10145C0043F00103136000BFBD4680BC704700BF62
:10146C00F0ED00E0001000E080B400AF024B5B68D0
:10147C001846BD4680BC7047001000E090B583B0A4
:10148C0000AF78600D4B5A687B68D31A1846FEF78C
:10149C000DFF04460A4B1B681846FEF707FF034670
:1014AC0008491846FFF70EF8034619462046FFF781
:1014BC0009F8034618460C37BD4690BD001000E0F5
:1014CC000000002000007A4480B400AF00BFBD468D
:1014DC0080BC704780B584B000AF78600B46FB7061
:1014EC000023FB730023BB7310E07B685A687B6896
:1014FC005B881946104601F02DFA0346012B02D1E8
:10150C00FB7B0133FB73BB7B0133BB73BA7BFB7877
:10151C009A42EAD3FB785B08DBB2FA7B9A428CBF27
:10152C0001230023DBB21A467B685A707B685B7818
:10153C0018461037BD4680BD80B500AF0521104858
:10154C00FFF7C8FF05210F48FFF7C4FF05210E4820
:10155C00FFF7C0FF0C4B5B789B005AB2094B5B78D2
:10156C005B005BB213435AB2054B5B785BB213431F
:10157C005BB2DAB2054B1A70044B1B78184680BD6F
:10158C00040000200C00002014000020E2010020C8
:10159C0080B400AF00BFBD4680BC704780B400AFC4
:1015AC00064B1B791A46064B33F81220034B1A8054
:1015BC00024B1B881846BD4680BC7047E4010020D6
:1015CC00DC01002080B500AFFFF7E8FF0C4B1B8857
:1015DC00A3F5AA730B4A82FB03129210DB17D31AE2
:1015EC00DAB2074B9A70064B9B78642B02D9044BEA
:1015FC0064229A70024B9B789BB2184680BD00BF48
:10160C00E4010020E9A28B2E80B400AF00BFBD46E0
:10161C0080BC704780B582B000AF0F4B5B8818461A
:10162C00FEF744FE03460D491846FEF74BFF0346F2
:10163C000B491846FEF792FE03467B600949786811
:10164C00FEF78CFE03461A46074B1A60064B1B68C6
:10165C0018460837BD4680BDDC01002000F07F45F0
:10166C00F62834405D749941EC01002080B500AF40
:10167C00084B1B68074A43F010031360032000F06B
:10168C00B5FD0F2000F008F8FFF732FB00231846D9
:10169C0080BD00BF0020024080B582B000AF7860F2
:1016AC00124B1A68124B1B7819464FF47A73B3FB22
:1016BC00F1F3B2FBF3F3184600F0CDFD0346002B1B
:1016CC0001D001230EE07B680F2B0AD80022796829
:1016DC004FF0FF3000F095FD064A7B681360002345
:1016EC0000E0012318460837BD4680BD00000020ED
:1016FC00200000201C00002080B400AF054B1B789C
:10170C001A46054B1B681344034A136000BFBD46C1
:10171C0080BC704720000020F001002080B400AF96
:10172C00024B1B681846BD4680BC7047F001002078
:10173C0080B586B000AF78600023FB7500233B6159
:10174C000023BB600023FB607B68002B01D10123CD
:10175C00BEE07B689B68002B7B689B6A002B09D1E1
:10176C007B680022DA627B68002283F82420786888
:10177C00FFF7F0FA786800F0BDFB0346FB757B6859
:10178C009B6A03F01003002B40F09980FB7D002B2B
:10179C0040F095807B689B6A23F4885323F0020306
:1017AC0043F002027B689A627B685A687B68DB694B
:1017BC001A437B681B7B5B001343BA681343BB6003
:1017CC007B689B68B3F5807F03D07B689B68012B9B
:1017DC0002D14FF4807300E000233A6913433B615C
:1017EC007B681B7D012B19D17B681B7B002B09D1DE
:1017FC007B689B69013B5A033B69134343F40063C9
:10180C003B610BE07B689B6A43F020027B689A6229
:10181C007B68DB6A43F001027B68DA627B681B68D9
:10182C005B6823F469417B681B683A690A435A6018
:10183C007B681B689A68284B13407A681268B968F1
:10184C000B4393607B689B68B3F5807F03D07B6808
:10185C009B68012B04D17B681B69013B1B05FB605A
:10186C007B681B68DB6A23F470017B681B68FA6871
:10187C000A43DA627B681B689A68184B1340BA6893
:10188C009A420BD17B680022DA627B689B6A23F058
:10189C00030343F001027B689A6218E07B689B6A41
:1018AC0023F0120343F010027B689A627B68DB6AB8
:1018BC0043F001027B68DA620123FB7507E07B6869
:1018CC009B6A43F010027B689A620123FB75FB7DD7
:1018DC0018461837BD4680BDFDF7E1FFFE0E1FFF11
:1018EC0080B586B000AFF860B9607A600023FB75F4
:1018FC00FB681B68644A934204D0FB681B68634A0C
:10190C00934206D1604B5B6803F47023002B40F0CC
:10191C00B380FB6893F82430012B01D10223AEE095
:10192C00FB68012283F82420F86800F089FA03464A
:10193C00FB75FB7D002B40F09A80FB689B6A23F4BF
:10194C00706323F0010343F48072FB689A62FB68B6
:10195C001B684E4A934205D14B4B5B6803F47023D2
:10196C00002B15D1FB689B6A23F48012FB689A62EA
:10197C00FB681B685B6803F48063002B26D0FB6854
:10198C009B6A23F4405343F48052FB689A621DE037
:10199C00FB689B6A43F48012FB689A62FB681B68C5
:1019AC00394A934204D0FB681B68384A93420DD1E4
:1019BC00354B5B6803F48063002B07D0FB689B6A94
:1019CC0023F4405343F48052FB689A62FB689B6A91
:1019DC0003F48053002B06D0FB68DB6A23F006026D
:1019EC00FB68DA6202E0FB680022DA62FB68002224
:1019FC0083F82420FB681B6A254A9A62FB681B6AE1
:101A0C00244ADA62FB681B6A234A1A63FB681B6868
:101A1C006FF002021A60FB681B689A68FB681B680F
:101A2C0042F480729A60FB68186AFB681B684C333E
:101A3C001946BA687B6800F075FCFB681B689B68EC
:101A4C0003F46023B3F5602F08D1FB681B689A6818
:101A5C00FB681B6842F4A0029A600FE0FB681B68ED
:101A6C009A68FB681B6842F480129A6006E0FB6877
:101A7C00002283F8242001E00123FB75FB7D18462E
:101A8C001837BD4680BD00BF00240140002801402E
:101A9C00831F0008FF1F00081B20000880B584B0BE
:101AAC0000AF78607B681B681B68FB607B681B68F9
:101ABC005B68BB60BB6803F02003002B3ED0FB6867
:101ACC0003F00203002B39D07B689B6A03F01003F0
:101ADC00002B05D17B689B6A43F400727B689A6289
:101AEC007B681B689B6803F46023B3F5602F1DD1E2
:101AFC007B681B7B002B19D17B681B685A687B6841
:101B0C001B6822F020025A607B689B6A23F4807267
:101B1C007B689A627B689B6A03F48053002B05D127
:101B2C007B689B6A43F001027B689A627868FFF7D6
:101B3C00D1F87B681B686FF012021A60BB6803F067
:101B4C008003002B4DD0FB6803F00403002B48D01E
:101B5C007B689B6A03F01003002B05D17B689B6AA2
:101B6C0043F400527B689A627B681B689B6803F4A1
:101B7C00E043B3F5E04F12D07B681B685B6803F45D
:101B8C008063002B25D17B681B689B6803F4602362
:101B9C00B3F5602F1DD17B681B7B002B19D17B68A3
:101BAC001B685A687B681B6822F080025A607B684D
:101BBC009B6A23F480527B689A627B689B6A03F46D
:101BCC008073002B05D17B689B6A43F001027B6814
:101BDC009A62786800F035FA7B681B686FF00C022B
:101BEC001A60BB6803F04003002B12D0FB6803F0B3
:101BFC000103002B0DD07B689B6A43F480327B6819
:101C0C009A62786800F012F87B681B686FF001022A
:101C1C001A6000BF1037BD4680BD80B483B000AFE2
:101C2C00786000BF0C37BD4680BC704780B483B071
:101C3C0000AF786000BF0C37BD4680BC704780B4E5
:101C4C0083B000AF786000BF0C37BD4680BC7047D6
:101C5C0080B485B000AF786039600023FB7300233B
:101C6C00BB607B6893F82430012B01D10223DCE0AC
:101C7C007B68012283F824203B685B68062B1CD808
:101C8C007B681B68596B3B685A6813469B0013446E
:101C9C00053B1F2202FA03F3DB4319403B6818682B
:101CAC003B685A6813469B001344053B00FA03F249
:101CBC007B681B680A435A633CE03B685B680C2BEF
:101CCC001CD87B681B68196B3B685A6813469B00D1
:101CDC001344233B1F2202FA03F3DB4319403B68F6
:101CEC0018683B685A6813469B001344233B00FA60
:101CFC0003F27B681B680A431A631BE07B681B6852
:101D0C00D96A3B685A6813469B001344413B1F2217
:101D1C0002FA03F3DB4319403B6818683B685A68C6
:101D2C0013469B001344413B00FA03F27B681B688B
:101D3C000A43DA623B681B68092B1CD97B681B6859
:101D4C00D9683B681A6813465B0013441E3B072294
:101D5C0002FA03F3DB4319403B6898683B681A6846
:101D6C0013465B0013441E3B00FA03F27B681B68AE
:101D7C000A43DA6019E07B681B6819693B681A68CA
:101D8C0013465B001344072202FA03F3DB431940AA
:101D9C003B6898683B681A6813465B00134400FA6A
:101DAC0003F27B681B680A431A613B681B68102BA3
:101DBC0003D03B681B68112B32D17B681B681D4A12
:101DCC00934225D17B681B689B6803F40003002BAE
:101DDC0026D17B681B689A687B681B6842F40002FA
:101DEC009A603B681B68102B1AD1134B1B68134A63
:101DFC00A2FB03239A0C13469B0013445B00BB60AD
:101E0C0002E0BB68013BBB60BB68002BF9D107E06B
:101E1C007B689B6A43F020027B689A620123FB7308
:101E2C007B68002283F82420FB7B18461437BD46C0
:101E3C0080BC7047002401400000002083DE1B435F
:101E4C0080B584B000AF78600023FB600023BB60DA
:101E5C007B681B689B6803F00103012B40D07B68F7
:101E6C001B689A687B681B6842F001029A601F4BE2
:101E7C001B681F4AA2FB03239B0CBB6002E0BB68E0
:101E8C00013BBB60BB68002BF9D1FFF747FCF86046
:101E9C001FE0FFF743FC0246FB68D31A022B18D94C
:101EAC007B681B689B6803F00103012B11D07B68D6
:101EBC009B6A43F010027B689A627B68DB6A43F092
:101ECC0001027B68DA627B68002283F824200123FC
:101EDC0007E07B681B689B6803F00103012BD8D1DA
:101EEC00002318461037BD4680BD00BF00000020FF
:101EFC0083DE1B4380B584B000AF78600023FB60A9
:101F0C007B681B689B6803F00103012B2ED17B6857
:101F1C001B689A687B681B6822F001029A60FFF7C5
:101F2C00FDFBF8601BE0FFF7F9FB0246FB68D31AD8
:101F3C00022B14D97B681B689B6803F00103012BEF
:101F4C000DD17B689B6A43F010027B689A627B68B8
:101F5C00DB6A43F001027B68DA62012307E07B68ED
:101F6C001B689B6803F00103012BDCD0002318468F
:101F7C001037BD4680BD80B584B000AF78607B68FB
:101F8C005B6AFB60FB689B6A03F05003002B27D154
:101F9C00FB689B6A43F40072FB689A62FB681B68DF
:101FAC009B6803F46023B3F5602F15D1FB681B7B92
:101FBC00002B11D1FB689B6A23F48072FB689A6238
:101FCC00FB689B6A03F48053002B05D1FB689B6A6A
:101FDC0043F00102FB689A62F868FEF77BFE04E0AE
:101FEC00FB681B6A1B6B7868984700BF1037BD46AF
:101FFC0080BD80B584B000AF78607B685B6AFB60A5
:10200C00F868FFF70AFE00BF1037BD4680BD80B5EB
:10201C0084B000AF78607B685B6AFB60FB689B6A8E
:10202C0043F04002FB689A62FB68DB6A43F00402EF
:10203C00FB68DA62F868FFF702FE00BF1037BD4696
:10204C0080BD80B483B000AF786000BF0C37BD4654
:10205C0080BC704780B485B000AF78607B6803F0BB
:10206C000703FB600C4BDB68BB60BA684FF6FF03E1
:10207C001340BB60FB681A02BB68134343F0BF6399
:10208C0043F40033BB60044ABB68D36000BF143711
:10209C00BD4680BC704700BF00ED00E080B400AFCF
:1020AC00044BDB681B0A03F007031846BD4680BCD3
:1020BC00704700BF00ED00E080B483B000AF034672
:1020CC00FB7197F90730002B0BDBFB7903F01F0238
:1020DC00064997F907305B09012000FA02F241F832
:1020EC00232000BF0C37BD4680BC704700E100E0E8
:1020FC0080B483B000AF03463960FB7197F90730A9
:10210C00002B0ADB3B68DAB20C4997F90730120155
:10211C00D2B20B4483F800230AE03B68DAB20849D8
:10212C00FB7903F00F03043B1201D2B20B441A7675
:10213C0000BF0C37BD4680BC704700BF00E100E01B
:10214C0000ED00E080B489B000AFF860B9607A604F
:10215C00FB6803F00703FB61FB69C3F10703042B66
:10216C0028BF0423BB61FB690433062B02D9FB692E
:10217C00033B00E000237B614FF0FF32BB6902FAA6
:10218C0003F3DA43BB681A407B699A404FF0FF3186
:10219C007B6901FA03F3D9437B680B401343184660
:1021AC002437BD4680BC704780B582B000AF7860E4
:1021BC007B68013BB3F1807F01D301230FE00A4A16
:1021CC007B68013B53600F214FF0FF30FFF790FF0E
:1021DC00054B00229A60044B07221A600023184614
:1021EC000837BD4680BD00BF10E000E080B582B06E
:1021FC0000AF78607868FFF72DFF00BF0837BD4649
:10220C0080BD80B586B000AF0346B9607A60FB73C1
:10221C0000237B61FFF742FF78617A68B9687869BF
:10222C00FFF790FF024697F90F3011461846FFF75B
:10223C005FFF00BF1837BD4680BD80B582B000AFD0
:10224C000346FB7197F907301846FFF735FF00BFBF
:10225C000837BD4680BD80B582B000AF7860786825
:10226C00FFF7A2FF034618460837BD4680BD0000A5
:10227C0080B485B000AF78600023FB607B68002BD6
:10228C0001D1012343E07B681B681A46224B13449F
:10229C00224AA2FB03231B099A007B681A647B6801
:1022AC001F4ADA637B68022283F821207B681B6853
:1022BC001B68FB60FB6823F47F5323F03003FB6047
:1022CC007B685A687B689B681A437B68DB681A4397
:1022DC007B681B691A437B685B691A437B689B6943
:1022EC001A437B68DB691343FA681343FB607B6812
:1022FC001B68FA681A607B6800229A637B6801226B
:10230C0083F821207B68002283F8202000231846C4
:10231C001437BD4680BC7047F8FFFDBFCDCCCCCC8C
:10232C000000024080B586B000AFF860B9607A60FA
:10233C003B600023FB75FB6893F82030012B01D127
:10234C0002234BE0FB68012283F82020FB6893F802
:10235C002130DBB2012B3AD1FB68022283F8212019
:10236C00FB6800229A63FB681B681A68FB681B6891
:10237C0022F001021A603B687A68B968F86800F0CC
:10238C0037F9FB68DB6A002B08D0FB681B681A68FE
:10239C00FB681B6842F00E021A600FE0FB681B68BA
:1023AC001A68FB681B6822F004021A60FB681B6841
:1023BC001A68FB681B6842F00A021A60FB681B680B
:1023CC001A68FB681B6842F001021A6005E0FB68A2
:1023DC00002283F820200223FB75FB7D184618375A
:1023EC00BD4680BD80B584B000AF78607B68DB6B88
:1023FC001B68FB607B681B681B68BB607B681B6C85
:10240C0004229A40FB681340002B4FD0BB6803F0AA
:10241C000403002B4AD07B681B681B6803F0200365
:10242C00002B07D17B681B681A687B681B6822F03D
:10243C0004021A607B681B68664A934229D07B6849
:10244C001B68654A934222D07B681B68634A93429F
:10245C001AD07B681B68624A934212D07B681B6857
:10246C00604A93420AD07B681B685F4A934202D150
:10247C004FF480030EE04FF080630BE04FF48023A9
:10248C0008E04FF4804305E04FF4806302E0402302
:10249C0000E00423554A53607B68DB6A002B00F094
:1024AC0094807B68DB6A786898478EE07B681B6C4D
:1024BC0002229A40FB681340002B56D0BB6803F0F5
:1024CC000203002B51D07B681B681B6803F02003B0
:1024DC00002B0BD17B681B681A687B681B6822F089
:1024EC000A021A607B68012283F821207B681B6832
:1024FC00384A934229D07B681B68374A934222D0D2
:10250C007B681B68354A93421AD07B681B68344A37
:10251C00934212D07B681B68324A93420AD07B6884
:10252C001B68314A934202D14FF400130EE04FF076
:10253C0000730BE04FF4003308E04FF4005305E058
:10254C004FF4007302E0202300E00223274A53607B
:10255C007B68002283F820207B689B6A002B34D098
:10256C007B689B6A786898472FE07B681B6C082215
:10257C009A40FB681340002B28D0BB6803F008037B
:10258C00002B23D07B681B681A687B681B6822F0C1
:10259C000E021A607B681A6C7B68DB6B012101FAF6
:1025AC0002F25A607B6801229A637B68012283F8ED
:1025BC0021207B68002283F820207B681B6B002B7A
:1025CC0004D07B681B6B7868984700BF00BF10373E
:1025DC00BD4680BD080002401C0002403000024095
:1025EC0044000240580002406C00024000000240CF
:1025FC0080B485B000AFF860B9607A603B60FB686E
:10260C001A6CFB68DB6B012101FA02F25A60FB6861
:10261C001B683A685A60FB685B68102B08D1FB6832
:10262C001B687A689A60FB681B68BA68DA6007E016
:10263C00FB681B68BA689A60FB681B687A68DA608A
:10264C0000BF1437BD4680BC7047000080B48BB00F
:10265C0000AF7860396000237B6200233B6269E144
:10266C0001227B6A02FA03F3FB613B681B68FA697F
:10267C001340BB61BA69FB699A4240F058813B68D0
:10268C005B689A4A93425ED0984A934275D8984AAE
:10269C00934258D0964A93426FD8964A934252D05E
:1026AC00944A934269D8944A93424CD0924A9342AA
:1026BC0063D8924A934246D0904A93425DD8122BEB
:1026CC002AD8122B59D801A252F823F0532700080C
:1026DC002D2700083F2700088127000887270008BE
:1026EC008727000887270008872700088727000806
:1026FC0087270008872700088727000887270008F6
:10270C0087270008872700088727000887270008E5
:10271C003527000849270008794A934213D02CE04A
:10272C003B68DB683B6229E03B68DB6804333B6257
:10273C0024E03B68DB6808333B621FE03B68DB68E6
:10274C000C333B621AE03B689B68002B02D10423DC
:10275C003B6213E03B689B68012B05D108233B626D
:10276C007B68FA691A6109E008233B627B68FA69A5
:10277C005A6103E000233B6200E000BFBB69FF2B02
:10278C0001D87B6801E07B6804337B61BB69FF2B5C
:10279C0002D87B6A9B0002E07B6A083B9B003B6192
:1027AC007B691A680F213B6901FA03F3DB431A407A
:1027BC00396A3B6901FA03F31A437B691A603B6877
:1027CC005B6803F08053002B00F0B1804D4B9B698C
:1027DC004C4A43F0010393614A4B9B6903F001039C
:1027EC00BB60BB68484A7B6A9B08023352F82330B3
:1027FC00FB607B6A03F003039B000F2202FA03F3D6
:10280C00DB43FA681340FB607B68404A934213D069
:10281C007B683F4A93420DD07B683E4A934207D077
:10282C007B683D4A934201D1032306E0042304E074
:10283C00022302E0012300E000237A6A02F0030283
:10284C0092009340FA681343FB602F497B6A9B0804
:10285C000233FA6841F823203B685B6803F4801369
:10286C00002B06D02D4B9A682C49BB6913438B6007
:10287C0006E02A4B9A68BB69DB43284913408B60FE
:10288C003B685B6803F40013002B06D0234BDA681B
:10289C002249BB691343CB6006E0204BDA68BB6965
:1028AC00DB431E491340CB603B685B6803F4003389
:1028BC00002B06D0194B5A681849BB6913434B605F
:1028CC0006E0164B5A68BB69DB43144913404B6056
:1028DC003B685B6803F48033002B21D00F4B1A68E4
:1028EC000E49BB6913430B6021E000BF000032109E
:1028FC000000311000002210000021100000121006
:10290C0000001110001002400000014000080140BE
:10291C00000C014000100140001401400004014073
:10292C000B4B1A68BB69DB43094913400B607B6A8C
:10293C0001337B623B681A687B6A22FA03F3002B33
:10294C007FF48EAE00BF00BF2C37BD4680BC7047F5
:10295C000004014080B485B000AF78600B467B80EA
:10296C007B689A687B881340002B02D00123FB7391
:10297C0001E00023FB73FB7B18461437BD4680BC7B
:10298C007047000080B586B000AF78607B68002B84
:10299C0001D1012372E27B681B6803F00103002B59
:1029AC0000F08780924B5B6803F00C03042B0CD077
:1029BC008F4B5B6803F00C03082B12D18C4B5B68BC
:1029CC0003F48033B3F5803F0BD1894B1B6803F4C0
:1029DC000033002B6CD07B685B68002B68D1012323
:1029EC004CE27B685B68B3F5803F06D1804B1B687B
:1029FC007F4A43F4803313602EE07B685B68002BC6
:102A0C000CD17B4B1B687A4A23F480331360784BD0
:102A1C001B68774A23F4802313601DE07B685B6896
:102A2C00B3F5A02F0CD1724B1B68714A43F4802371
:102A3C0013606F4B1B686E4A43F4803313600BE0DA
:102A4C006B4B1B686A4A23F480331360684B1B681A
:102A5C00674A23F4802313607B685B68002B13D0D8
:102A6C00FEF75CFE386108E0FEF758FE02463B6953
:102A7C00D31A642B01D9032300E25D4B1B6803F4CA
:102A8C000033002BF0D014E0FEF748FE386108E06C
:102A9C00FEF744FE02463B69D31A642B01D903238B
:102AAC00ECE1534B1B6803F40033002BF0D100E036
:102ABC0000BF7B681B6803F00203002B63D04C4BF8
:102ACC005B6803F00C03002B0BD0494B5B6803F0E5
:102ADC000C03082B1CD1464B5B6803F48033002B92
:102AEC0016D1434B1B6803F00203002B05D07B6807
:102AFC001B69012B01D00123C0E13D4B1B6823F066
:102B0C00F8027B685B69DB00394913430B603AE0E0
:102B1C007B681B69002B20D0364B01221A60FEF714
:102B2C00FDFD386108E0FEF7F9FD02463B69D31A5A
:102B3C00022B01D90323A1E12D4B1B6803F00203E7
:102B4C00002BF0D02A4B1B6823F0F8027B685B69E2
:102B5C00DB00274913430B6015E0264B00221A605B
:102B6C00FEF7DCFD386108E0FEF7D8FD02463B6954
:102B7C00D31A022B01D9032380E11D4B1B6803F0F0
:102B8C000203002BF0D17B681B6803F00803002BB9
:102B9C003AD07B689B69002B19D0174B01221A6025
:102BAC00FEF7BCFD386108E0FEF7B8FD02463B6954
:102BBC00D31A022B01D9032360E10D4B5B6A03F09E
:102BCC000203002BF0D0012000F09CFA1CE00A4B11
:102BDC0000221A60FEF7A2FD38610FE0FEF79EFDA1
:102BEC0002463B69D31A022B08D9032346E100BFE6
:102BFC00001002400000424280044242924B5B6A49
:102C0C0003F00203002BE9D17B681B6803F004037B
:102C1C00002B00F0A6800023FB758B4BDB6903F0C7
:102C2C008053002B0DD1884BDB69874A43F08053CE
:102C3C00D361854BDB6903F08053BB60BB68012318
:102C4C00FB75824B1B6803F48073002B18D17F4BF0
:102C5C001B687E4A43F480731360FEF75FFD386196
:102C6C0008E0FEF75BFD02463B69D31A642B01D9E1
:102C7C00032303E1754B1B6803F48073002BF0D026
:102C8C007B68DB68012B06D16F4B1B6A6E4A43F0E5
:102C9C00010313622DE07B68DB68002B0CD16A4BBF
:102CAC001B6A694A23F001031362674B1B6A664A6D
:102CBC0023F0040313621CE07B68DB68052B0CD14A
:102CCC00614B1B6A604A43F0040313625E4B1B6A40
:102CDC005D4A43F0010313620BE05B4B1B6A5A4ADB
:102CEC0023F001031362584B1B6A574A23F0040369
:102CFC0013627B68DB68002B15D0FEF70FFD386183
:102D0C000AE0FEF70BFD02463B69D31A41F288320A
:102D1C00934201D90323B1E04B4B1B6A03F002032E
:102D2C00002BEED014E0FEF7F9FC38610AE0FEF758
:102D3C00F5FC02463B69D31A41F28832934201D921
:102D4C0003239BE0404B1B6A03F00203002BEED1E4
:102D5C00FB7D012B05D13C4BDB693B4A23F08053B7
:102D6C00D3617B68DB69002B00F08780364B5B6896
:102D7C0003F00C03082B61D07B68DB69022B46D176
:102D8C00334B00221A60FEF7C9FC386108E0FEF7ED
:102D9C00C5FC02463B69D31A022B01D903236DE013
:102DAC00294B1B6803F00073002BF0D17B681B6A66
:102DBC00B3F5803F08D1244B5B6823F400327B6869
:102DCC009B68214913434B601F4B5B6823F47412BF
:102DDC007B68196A7B685B6A0B431B4913434B6026
:102DEC001B4B01221A60FEF799FC386108E0FEF7D4
:102DFC0095FC02463B69D31A022B01D903233DE013
:102E0C00114B1B6803F00073002BF0D035E0104B16
:102E1C0000221A60FEF782FC386108E0FEF77EFCA7
:102E2C0002463B69D31A022B01D9032326E0064B39
:102E3C001B6803F00073002BF0D11EE07B68DB698C
:102E4C00012B07D1012319E0001002400070004053
:102E5C00600042420B4B5B68FB60FB6803F4803202
:102E6C007B681B6A9A4206D1FB6803F470127B687C
:102E7C005B6A9A4201D0012300E000231846183700
:102E8C00BD4680BD0010024080B584B000AF7860B4
:102E9C0039607B68002B01D10123D0E06A4B1B68A1
:102EAC0003F007033A689A4210D9674B1B6823F06A
:102EBC00070265493B6813430B60634B1B6803F0C7
:102ECC0007033A689A4201D00123B8E07B681B687B
:102EDC0003F00203002B20D07B681B6803F0040373
:102EEC00002B05D0594B5B68584A43F4E0635360A0
:102EFC007B681B6803F00803002B05D0534B5B6801
:102F0C00524A43F460535360504B5B6823F0F00219
:102F1C007B689B684D4913434B607B681B6803F0CF
:102F2C000103002B40D07B685B68012B07D1474B1A
:102F3C001B6803F40033002B15D101237FE07B6861
:102F4C005B68022B07D1414B1B6803F00073002B0D
:102F5C0009D1012373E03D4B1B6803F00203002BE6
:102F6C0001D101236BE0394B5B6823F003027B68D2
:102F7C005B68364913434B60FEF7D0FBF8600AE000
:102F8C00FEF7CCFB0246FB68D31A41F2883293421F
:102F9C0001D9032353E02D4B5B6803F00C027B68D3
:102FAC005B689B009A42EBD1274B1B6803F007032D
:102FBC003A689A4210D2244B1B6823F0070222492C
:102FCC003B6813430B60204B1B6803F007033A6804
:102FDC009A4201D0012332E07B681B6803F00403A2
:102FEC00002B08D0194B5B6823F4E0627B68DB682C
:102FFC00164913434B607B681B6803F00803002BD6
:10300C0009D0124B5B6823F460527B681B69DB00B0
:10301C000E4913434B6000F021F802460B4B5B68E2
:10302C001B0903F00F030A49CB5C22FA03F3094A8C
:10303C001360094B1B681846FEF72EFB002318463D
:10304C001037BD4680BD00BF00200240001002407A
:10305C009C420008000000201C00002080B487B0B7
:10306C0000AF0023FB600023BB6000237B610023C7
:10307C007B6000233B611E4B5B68FB60FB6803F0CD
:10308C000C03042B02D0082B03D027E0194B3B6117
:10309C0027E0FB689B0C03F00F03174AD35C7B60A3
:1030AC00FB6803F48033002B10D0114B5B685B0C76
:1030BC0003F00103114AD35CBB607B680D4A03FB30
:1030CC0002F2BB68B2FBF3F37B6104E07B680C4A51
:1030DC0002FB03F37B617B693B6102E0054B3B61C7
:1030EC0000BF3B6918461C37BD4680BC704700BF0B
:1030FC000010024000127A00AC420008BC420008EA
:10310C0000093D0080B485B000AF78600A4B1B68A5
:10311C000A4AA2FB03235B0A7A6802FB03F3FB60F7
:10312C0000BFFB685A1EFA60002BF9D100BF00BF2C
:10313C001437BD4680BC704700000020D34D621090
:10314C0080B586B000AF786000233B610023FB6044
:10315C007B681B6803F00103002B7DD00023FB75FB
:10316C004F4BDB6903F08053002B0DD14C4BDB69CB
:10317C004B4A43F08053D361494BDB6903F08053D6
:10318C00BB60BB680123FB75464B1B6803F4807363
:10319C00002B18D1434B1B68424A43F480731360D5
:1031AC00FEF7BCFA386108E0FEF7B8FA02463B6954
:1031BC00D31A642B01D903236DE03A4B1B6803F43B
:1031CC008073002BF0D0364B1B6A03F44073FB600A
:1031DC00FB68002B2ED07B685B6803F44073FA68A5
:1031EC009A4227D02E4B1B6A23F44073FB602E4B64
:1031FC0001221A602C4B00221A60294AFB681362C8
:10320C00FB6803F00103002B14D0FEF787FA38613A
:10321C000AE0FEF783FA02463B69D31A41F2883280
:10322C00934201D9032336E01D4B1B6A03F00203C2
:10323C00002BEED01A4B1B6A23F440727B685B6840
:10324C00174913430B62FB7D012B05D1144BDB6932
:10325C00134A23F08053D3617B681B6803F002038D
:10326C00002B08D00E4B5B6823F440427B689B68B4
:10327C000B4913434B607B681B6803F01003002B56
:10328C0008D0074B5B6823F480027B68DB68044939
:10329C0013434B60002318461837BD4680BD00BF52
:1032AC0000100240007000404004424280B582B0E1
:1032BC0000AF78607B68002B01D1012341E07B6873
:1032CC0093F83D30DBB2002B06D17B68002283F8EB
:1032DC003C207868FDF7F4FD7B68022283F83D20E2
:1032EC007B681A687B6804331946104600F0F4FAC0
:1032FC007B68012283F846207B68012283F83E20FC
:10330C007B68012283F83F207B68012283F84020F0
:10331C007B68012283F841207B68012283F84220DC
:10332C007B68012283F843207B68012283F84420C8
:10333C007B68012283F845207B68012283F83D20BD
:10334C00002318460837BD4680BD000080B485B008
:10335C0000AF78607B6893F83D30DBB2012B01D075
:10336C00012332E07B68022283F83D207B681B68D6
:10337C00184A93420ED07B681B68B3F1804F09D07A
:10338C007B681B68144A934204D07B681B68134A01
:10339C00934211D17B681B689B6803F00703FB60A9
:1033AC00FB68062B10D07B681B681A687B681B684F
:1033BC0042F001021A6007E07B681B681A687B68A0
:1033CC001B6842F001021A60002318461437BD46F0
:1033DC0080BC7047002C01400004004000080040F5
:1033EC0080B582B000AF78607B68002B01D10123DF
:1033FC0041E07B6893F83D30DBB2002B06D17B6853
:10340C00002283F83C207868FDF714FD7B680222CB
:10341C0083F83D207B681A687B6804331946104694
:10342C0000F05AFA7B68012283F846207B6801225F
:10343C0083F83E207B68012283F83F207B680122C1
:10344C0083F840207B68012283F841207B680122AD
:10345C0083F842207B68012283F843207B68012299
:10346C0083F844207B68012283F845207B68012285
:10347C0083F83D20002318460837BD4680BD000068
:10348C0080B584B000AF786039603B68002B09D1FF
:10349C007B6893F83E30DBB2012B14BF0123002371
:1034AC00DBB222E03B68042B09D17B6893F83F30F8
:1034BC00DBB2012B14BF01230023DBB215E03B6808
:1034CC00082B09D17B6893F84030DBB2012B14BF79
:1034DC0001230023DBB208E07B6893F84130DBB2B8
:1034EC00012B14BF01230023DBB2002B01D00123DD
:1034FC005EE03B68002B04D17B68022283F83E20FF
:10350C0013E03B68042B04D17B68022283F83F2034
:10351C000BE03B68082B04D17B68022283F8402027
:10352C0003E07B68022283F841207B681B68012240
:10353C003968184600F05CFC7B681B681E4A934295
:10354C0007D17B681B685A6C7B681B6842F400428D
:10355C005A647B681B68184A93420ED07B681B68C0
:10356C00B3F1804F09D07B681B68144A934204D096
:10357C007B681B68124A934211D17B681B689B685D
:10358C0003F00703FB60FB68062B10D07B681B68FD
:10359C001A687B681B6842F001021A6007E07B68BE
:1035AC001B681A687B681B6842F001021A600023D2
:1035BC0018461037BD4680BD002C01400004004069
:1035CC000008004080B586B000AFF860B9607A6042
:1035DC000023FB75FB6893F83C30012B01D10223CF
:1035EC00AEE0FB68012283F83C207B680C2B00F2D8
:1035FC009F8001A252F823F0393600083D370008AD
:10360C003D3700083D370008793600083D37000883
:10361C003D3700083D370008BB3600083D37000831
:10362C003D3700083D370008FB360008FB681B6877
:10363C00B968184600F0BEF9FB681B689A69FB680C
:10364C001B6842F008029A61FB681B689A69FB6868
:10365C001B6822F004029A61FB681B689969BB68BD
:10366C001A69FB681B680A439A6164E0FB681B6873
:10367C00B968184600F004FAFB681B689A69FB6885
:10368C001B6842F400629A61FB681B689A69FB68CC
:10369C001B6822F480629A61FB681B689969BB689D
:1036AC001B691A02FB681B680A439A6143E0FB68BA
:1036BC001B68B968184600F04DFAFB681B68DA699C
:1036CC00FB681B6842F00802DA61FB681B68DA6968
:1036DC00FB681B6822F00402DA61FB681B68D9697D
:1036EC00BB681A69FB681B680A43DA6123E0FB6854
:1036FC001B68B968184600F097FAFB681B68DA6912
:10370C00FB681B6842F40062DA61FB681B68DA69CB
:10371C00FB681B6822F48062DA61FB681B68D9695C
:10372C00BB681B691A02FB681B680A43DA6102E07A
:10373C000123FB7500BFFB68002283F83C20FB7D56
:10374C0018461837BD4680BD80B584B000AF786090
:10375C0039600023FB737B6893F83C30012B01D15B
:10376C000223B4E07B68012283F83C207B680222B0
:10377C0083F83D207B681B689B68BB60BB6823F0AB
:10378C007703BB60BB6823F47F43BB607B681B681B
:10379C00BA689A603B681B68B3F5005F3ED0B3F51E
:1037AC00005F00F28780B3F5805F00F08680B3F590
:1037BC00805F7FD8702B1AD0702B7BD8602B50D0A9
:1037CC00602B77D8502B3CD0502B73D8402B58D033
:1037DC00402B6FD8302B64D0302B6BD8202B60D083
:1037EC00202B67D8002B5CD0102B5AD062E07B6862
:1037FC0018683B6899683B685A683B68DB6800F05E
:10380C00D8FA7B681B689B68BB60BB6843F0770386
:10381C00BB607B681B68BA689A604FE07B6818686D
:10382C003B6899683B685A683B68DB6800F0C1FAF2
:10383C007B681B689A687B681B6842F480429A60BC
:10384C003CE07B6818683B6859683B68DB681A4643
:10385C0000F038FA7B681B685021184600F08FFA8C
:10386C002CE07B6818683B6859683B68DB681A4633
:10387C0000F056FA7B681B686021184600F07FFA4E
:10388C001CE07B6818683B6859683B68DB681A4623
:10389C0000F018FA7B681B684021184600F06FFA9C
:1038AC000CE07B681A683B681B681946104600F0F0
:1038BC0066FA03E00123FB7300E000BF7B68012282
:1038CC0083F83D207B68002283F83C20FB7B184664
:1038DC001037BD4680BD000080B485B000AF786065
:1038EC0039607B681B68FB607B682F4A93420BD066
:1038FC007B68B3F1804F07D07B682C4A934203D08E
:10390C007B682B4A934208D1FB6823F07003FB6061
:10391C003B685B68FA681343FB607B68224A9342FE
:10392C000BD07B68B3F1804F07D07B681F4A934262
:10393C0003D07B681E4A934208D1FB6823F4407382
:10394C00FB603B68DB68FA681343FB60FB6823F0A1
:10395C0080023B685B691343FB607B68FA681A6002
:10396C003B689A687B68DA623B681A687B689A6283
:10397C007B680D4A934203D13B681A697B681A63D2
:10398C007B6801225A617B681B6903F00103002BE1
:10399C0005D07B681B6923F001027B681A6100BFAC
:1039AC001437BD4680BC7047002C01400004004019
:1039BC000008004080B487B000AF786039607B6845
:1039CC001B6A7B617B681B6A23F001027B681A62AD
:1039DC007B685B683B617B689B69FB60FB6823F0E1
:1039EC007003FB60FB6823F00303FB603B681B6800
:1039FC00FA681343FB607B6923F002037B613B682D
:103A0C009B687A6913437B617B681C4A93420CD197
:103A1C007B6923F008037B613B68DB687A6913439D
:103A2C007B617B6923F004037B617B68134A9342BF
:103A3C0011D13B6923F480733B613B6923F4007320
:103A4C003B613B685B693A6913433B613B689B692B
:103A5C003A6913433B617B683A695A607B68FA6840
:103A6C009A613B685A687B685A637B687A691A6208
:103A7C0000BF1C37BD4680BC704700BF002C014006
:103A8C0080B487B000AF786039607B681B6A7B615B
:103A9C007B681B6A23F010027B681A627B685B6888
:103AAC003B617B689B69FB60FB6823F4E043FB6034
:103ABC00FB6823F44073FB603B681B681B02FA68CD
:103ACC001343FB607B6923F020037B613B689B689D
:103ADC001B017A6913437B617B681D4A93420DD1AC
:103AEC007B6923F080037B613B68DB681B017A698F
:103AFC0013437B617B6923F040037B617B68144A31
:103B0C00934213D13B6923F480633B613B6923F4FB
:103B1C0000633B613B685B699B003A6913433B6103
:103B2C003B689B699B003A6913433B617B683A692C
:103B3C005A607B68FA689A613B685A687B689A633A
:103B4C007B687A691A6200BF1C37BD4680BC70471F
:103B5C00002C014080B487B000AF786039607B687E
:103B6C001B6A7B617B681B6A23F480727B681A6218
:103B7C007B685B683B617B68DB69FB60FB6823F0FF
:103B8C007003FB60FB6823F00303FB603B681B685E
:103B9C00FA681343FB607B6923F400737B613B6819
:103BAC009B681B027A6913437B617B681D4A9342B5
:103BBC000DD17B6923F400637B613B68DB681B02DE
:103BCC007A6913437B617B6923F480637B617B6837
:103BDC00144A934213D13B6923F480533B613B69F4
:103BEC0023F400533B613B685B691B013A69134347
:103BFC003B613B689B691B013A6913433B617B68E2
:103C0C003A695A607B68FA68DA613B685A687B6883
:103C1C00DA637B687A691A6200BF1C37BD4680BCC8
:103C2C00704700BF002C014080B487B000AF7860B3
:103C3C0039607B681B6A3B617B681B6A23F480528A
:103C4C007B681A627B685B687B617B68DB69FB6005
:103C5C00FB6823F4E043FB60FB6823F44073FB60D8
:103C6C003B681B681B02FA681343FB603B6923F437
:103C7C0000533B613B689B681B033A6913433B61F0
:103C8C007B680F4A934209D17B6923F480437B61A3
:103C9C003B685B699B017A6913437B617B687A693A
:103CAC005A607B68FA68DA613B685A687B681A6408
:103CBC007B683A691A6200BF1C37BD4680BC7047EE
:103CCC00002C014080B487B000AFF860B9607A6016
:103CDC00FB681B6A7B61FB681B6A23F00102FB68B3
:103CEC001A62FB689B693B613B6923F0F0033B6103
:103CFC007B681B013A6913433B617B6923F00A0320
:103D0C007B617A69BB6813437B61FB683A699A6192
:103D1C00FB687A691A6200BF1C37BD4680BC7047CD
:103D2C0080B487B000AFF860B9607A60FB681B6A3A
:103D3C007B61FB681B6A23F01002FB681A62FB684C
:103D4C009B693B613B6923F470433B617B681B03BC
:103D5C003A6913433B617B6923F0A0037B61BB6829
:103D6C001B017A6913437B61FB683A699A61FB68B2
:103D7C007A691A6200BF1C37BD4680BC704780B49C
:103D8C0085B000AF786039607B689B68FB60FB682E
:103D9C0023F07003FB603A68FB68134343F007039E
:103DAC00FB607B68FA689A6000BF1437BD4680BC24
:103DBC00704780B487B000AFF860B9607A603B6040
:103DCC00FB689B687B617B6923F47F437B613B6869
:103DDC001A027B681A43BB6813437A6913437B61ED
:103DEC00FB687A699A6000BF1C37BD4680BC70477F
:103DFC0080B487B000AFF860B9607A60BB6803F03C
:103E0C001F03012202FA03F37B61FB681A6A7B69C8
:103E1C00DB431A40FB681A62FB681A6ABB6803F042
:103E2C001F03796801FA03F31A43FB681A6200BF97
:103E3C001C37BD4680BC704780B485B000AF78603D
:103E4C0039607B6893F83C30012B01D1022346E0AA
:103E5C007B68012283F83C207B68022283F83D209A
:103E6C007B681B685B68FB607B681B689B68BB603E
:103E7C00FB6823F07003FB603B681B68FA68134314
:103E8C00FB607B681B68FA685A607B681B68164A83
:103E9C0093420ED07B681B68B3F1804F09D07B68CE
:103EAC001B68124A934204D07B681B68104A9342E9
:103EBC000CD1BB6823F08003BB603B685B68BA68BD
:103ECC001343BB607B681B68BA689A607B680122ED
:103EDC0083F83D207B68002283F83C2000231846A1
:103EEC001437BD4680BC7047002C014000040040D4
:103EFC000008004080B485B000AF786039600023C2
:103F0C00FB607B6893F83C30012B01D102233DE030
:103F1C007B68012283F83C20FB6823F0FF023B689E
:103F2C00DB681343FB60FB6823F440723B689B68BF
:103F3C001343FB60FB6823F480623B685B681343AC
:103F4C00FB60FB6823F400623B681B681343FB6057
:103F5C00FB6823F480523B681B691343FB60FB68CE
:103F6C0023F400523B685B691343FB60FB6823F44A
:103F7C0080423B68DB691343FB607B681B68FA6813
:103F8C005A647B68002283F83C20002318461437BF
:103F9C00BD4680BC7047000080B582B000AF786031
:103FAC00054A7B681360044B1B681846FFF7CEF973
:103FBC0000BF0837BD4680BDF401002080B483B03B
:103FCC0000AF7860094B1B681B6800225A6200BF67
:103FDC00064B1B681B685B6A7A689A42F8D800BF6C
:103FEC0000BF0C37BD4680BC704700BFF4010020F9
:103FFC0080B500AFFDF71EFA044B0022DA70FDF716
:10400C0033FA0346024A136000BF80BDE40100206E
:10401C00F801002080B582B000AFFDF7D3FA214B38
:10402C001B681846FDF72AFA78601F497868FCF778
:10403C0033FB0346002B31D11C4B9A781B4BDB789E
:10404C009A4210D9194BDB780233DAB2174BDA707B
:10405C00164BDA78154B9B789A420ED9134B9A78FB
:10406C00124BDA7009E0114B9A78104BDB789A42BC
:10407C0003D20E4B9A780D4BDA700C4BDB7818464A
:10408C00FCF718F903460A491846FCF723FB0346CC
:10409C00002B04D0054B6422DA7000E000BF083717
:1040AC00BD4680BDF801002000002041E401002045
:1040BC000000C84280B500AF034BDB781846FCF714
:1040CC00F5F80346184680BDE401002080B500AF2A
:1040DC00FDF7B0F9094B00221A60094B00221A6057
:1040EC00084B4FF000021A60074B01221A70FDF7C3
:1040FC0015FB0346054A136000BF80BDFC01002080
:10410C0000020020040200202100002008020020F0
:10411C0080B582B000AFFDF7A7F978600C4B1B6837
:10412C00002B05D00A4B1B687A68D31A094A136016
:10413C00074A7B681360FDF7F1FA0346064A1360E1
:10414C00064B00221A7000BF0837BD4680BD00BF69
:10415C00FC010020000200200802002021000020A9
:10416C0090B583B000AF254B1B68002B41D0244B7E
:10417C001B681846FCF79AF8034622491846FCF7C8
:10418C00EDF803461C461D4B1B681846FCF78EF8D1
:10419C0003461D491846FCF7E1F80346194620462C
:1041AC00FCF790F903467B60184B1B6818491846BE
:1041BC00FCF7D4F803461C4616497868FCF7CEF891
:1041CC00034619462046FBF7C1FF03461A460F4B20
:1041DC001A60FDF7A3FA02460F4B1B68D31AC82BC3
:1041EC0008D90A4B4FF000021A600C4B01221A70CE
:1041FC0000E000BF0C37BD4690BD00BF00020020A0
:10420C00000000200000704200001C43040200204B
:10421C00CDCC4C3FCDCC4C3E0802002021000020E0
:10422C0003460244934200D1704703F8011BF9E79F
:10423C0070B500260C4D0D4C641BA410A64209D180
:10424C0000F01AF800260A4D0A4C641BA410A64272
:10425C0005D170BD55F8043B98470136EEE755F88B
:10426C00043B98470136F2E7C0420008C042000800
:10427C00C0420008C4420008F8B500BFF8BC08BC36
:10428C009E467047F8B500BFF8BC08BC9E46704708
:10429C0000000000000000000102030406070809EA
:1042AC0002030405060708090A0B0C0D0E0F10106B
:0442BC0001020000FB
:0442C00031010008C0
:0442C4000D010008E0
:1042C80000127A0000000800000C014000001000F5
:1042D800000C014000002000000C0140100000000C
:0442E80001010000D0
:04000005080010A53A
:00000001FF
