:020000040800F2
:1000000000500020D10E0008590E0008610E0008B3
:10001000690E0008710E0008790E0008000000004B
:10002000000000000000000000000000810E000839
:100030008D0E000800000000990E0008A50E0008B3
:10004000190F0008190F0008190F0008190F0008F0
:10005000190F0008190F0008190F0008190F0008E0
:10006000190F0008190F0008190F0008B10E000839
:10007000190F0008190F0008190F0008190F0008C0
:10008000190F0008190F0008190F0008190F0008B0
:10009000190F0008190F0008190F0008190F0008A0
:1000A000190F0008190F0008190F0008190F000890
:1000B000190F0008190F0008190F0008190F000880
:1000C000190F0008190F0008190F0008190F000870
:1000D000190F0008190F0008190F0008190F000860
:1000E000190F0008190F0008190F00080000000080
:1000F0000000000000000000000000000000000000
:0C01000000000000000000005FF808F1A3
:10010C0010B5054C237833B9044B13B10448AFF345
:10011C0000800123237010BD0C00002000000000A3
:10012C008838000808B5034B1BB103490348AFF3EB
:10013C00008008BD00000000100000208838000876
:10014C0080B584B002AF78607B681B680A4A934222
:10015C000ED10A4B1B88184664230093002340F6EB
:10016C00FF72002100F00EF80346DAB2044B1A704D
:10017C0000BF0837BD4680BD00240140740100203B
:10018C007601002080B485B000AFF860B9607A6069
:10019C003B60FA68BB68D31AB9693A688A1A03FBE0
:1001AC0002F27968BB68CB1A92FBF3F23B681344FA
:1001BC0018461437BD4680BC7047000080B500AFB0
:1001CC0000224FF42071054802F057F8002240211C
:1001DC00034802F052F800BF80BD00BF0008014088
:1001EC00000C014080B582B000AF0346FB71FB7977
:1001FC00013B052B5CD801A252F823F0A3020008A6
:10020C006B02000887020008370200085102000840
:10021C00210200082A4B1A782A4B1B689A63012288
:10022C008021294802F029F845E0FFF7C7FF244B4D
:10023C001A78264B1B68DA6301228021224802F0CF
:10024C001CF838E0FFF7BAFF1D4B1A781F4B1B68E0
:10025C00DA63012240211E4802F00FF82BE0FFF771
:10026C00ADFF01224FF40071174802F006F8144B51
:10027C001A78144B1B689A631DE0FFF79FFF01224D
:10028C004FF40071104801F0F8FF0D4B1A78114B28
:10029C001B68DA630FE0FFF791FF012240210C4845
:1002AC0001F0EBFF064B1A780A4B1B68DA6302E08D
:1002BC00FFF784FF00BF00BF0837BD4680BD00BFFD
:1002CC00760100202C010020000801409C00002039
:1002DC00000C0140E400002080B584B000AF3B1D51
:1002EC0000221A609A800023FB7320E00821274823
:1002FC0001F0ACFF03461A46BB8813449BB2BB808B
:10030C001021224801F0A2FF03461A46FB88134431
:10031C009BB2FB8020211D4801F098FF03461A4632
:10032C003B8913449BB23B81FB7B0133FB73FB7B0F
:10033C009AB2174B1B889A42D8D30023BB73002365
:10034C007B7318E07B7B5B0010333B4433F80C2C45
:10035C000F4B1B885B089BB29A4209D37B7B012213
:10036C0002FA03F35AB297F90E3013435BB2BB7324
:10037C007B7B01337B737B7B022BE3D9BB7B03F051
:10038C000703DBB218461037BD4680BD000C014098
:10039C007801002080B500AF00F0BAFD00F03CF809
:1003AC0000F0F2FA00F0D2FA00F092F800F0CEF879
:1003BC0000F00AF900F03EF900F0DCF900F050FA18
:1003CC0008210F4802F0AEFC08210E4802F0AAFCEE
:1003DC0004210D4802F0A6FC4FF480520B490C4846
:1003EC0000F0D0FEFFF778FF03461A46094B1A704F
:1003FC00084B1B781846FFF7F5FE00BFF2E700BF6D
:10040C009C000020E40000202C010020740100203E
:10041C00280000207701002080B594B000AF07F1D0
:10042C00280328220021184603F0FBF907F11403D6
:10043C0000221A605A609A60DA601A613B1D002231
:10044C001A605A609A60DA600123BB624FF4803301
:10045C00FB6200233B630123BB6302237B644FF4E9
:10046C008033BB644FF4E013FB6407F12803184698
:10047C0001F01CFF0346002B01D000F001FB0F2301
:10048C007B610223BB610023FB614FF480633B6201
:10049C0000237B6207F114030221184602F088F94D
:1004AC000346002B01D000F0EBFA02237B604FF4E3
:1004BC004043FB603B1D184602F0D6FA0346002B66
:1004CC0001D000F0DDFA00BF5037BD4680BD000002
:1004DC0080B584B000AF3B1D00221A605A609A6050
:1004EC00184B194A1A60174B00229A60154B0122BF
:1004FC001A73144B00221A75124B4FF46022DA61F6
:10050C00104B00225A600F4B01221A610D4800F06B
:10051C0061FD0346002B01D000F0B2FA00237B6092
:10052C000123BB600723FB603B1D1946054800F007
:10053C0019FF0346002B01D000F0A2FA00BF1037C0
:10054C00BD4680BD280000200024014080B584B049
:10055C0000AF3B1D00221A605A609A60184B194A72
:10056C001A60174B00229A60154B00221A73144B19
:10057C0000221A75124B4FF46022DA61104B0022E4
:10058C005A600F4B01221A610D4800F023FD0346FF
:10059C00002B01D000F074FA00237B600123BB60B8
:1005AC000023FB603B1D1946054800F0DBFE0346AB
:1005BC00002B01D000F064FA00BF1037BD4680BD9F
:1005CC007C0100200028014080B500AF174B184A71
:1005DC001A60164B02225A60144B00229A60134B7D
:1005EC000022DA60114B4FF460221A610F4B4FF46A
:1005FC0080125A610D4B00221A760C4B00225A764F
:10060C000A4B00229A76094B0022DA76074B00221D
:10061C001A77064B00225A77044801F09CF80346DF
:10062C00002B01D000F02CFA00BF80BDAC010020E3
:10063C000064004080B596B000AF07F1480300227B
:10064C001A605A609A60DA6007F1400300221A605F
:10065C005A6007F1240300221A605A609A60DA602B
:10066C001A615A619A613B1D20220021184603F041
:10067C00D8F83E4B3E4A1A603C4B47225A603B4BE3
:10068C0000229A60394B6322DA60384B00221A61DF
:10069C00364B00225A61354B00229A61334802F0E6
:1006AC0099FA0346002B01D000F0EAF94FF480537D
:1006BC00BB6407F1480319462C4802F097FC03462B
:1006CC00002B01D000F0DCF9284802F0D2FA0346E6
:1006DC00002B01D000F0D4F900233B6400237B6491
:1006EC0007F140031946214802F0ECFF0346002BAA
:1006FC0001D000F0C5F960237B620023BB620023AC
:10070C00FB6200233B6300237B630023BB6300235A
:10071C00FB6307F1240308221946144802F0A4FBDA
:10072C000346002B01D000F0ABF900237B600023C3
:10073C00BB600023FB6000233B6100237B614FF413
:10074C000053BB6100233B623B1D1946074803F075
:10075C0017F80346002B01D000F092F9034800F083
:10076C00FFFA00BF5837BD4680BD00BF9C0000207B
:10077C00002C014080B58EB000AF07F12803002299
:10078C001A605A609A60DA6007F1200300221A603E
:10079C005A603B1D00221A605A609A60DA601A6136
:1007AC005A619A612C4B2D4A1A602B4B47225A6086
:1007BC00294B00229A60284B6322DA60264B0022D8
:1007CC001A61254B00229A61234802F003FA034672
:1007DC00002B01D000F054F94FF48053BB6207F1A9
:1007EC00280319461C4802F001FC0346002B01D0DB
:1007FC0000F046F9184802F03CFA0346002B01D0F1
:10080C0000F03EF900233B6200237B6207F12003DA
:10081C001946114802F056FF0346002B01D000F098
:10082C002FF960237B600023BB600023FB60002357
:10083C007B613B1D08221946074802F015FB034655
:10084C00002B01D000F01CF9034800F089FA00BF1E
:10085C003837BD4680BD00BFE400002000040040D6
:10086C0080B58EB000AF07F1280300221A605A60E1
:10087C009A60DA6007F1200300221A605A603B1D6F
:10088C0000221A605A609A60DA601A615A619A61A1
:10089C002C4B2D4A1A602B4B47225A60294B0022B5
:1008AC009A60284B6322DA60264B00221A61254B92
:1008BC0000229A61234802F08DF90346002B01D0E7
:1008CC0000F0DEF84FF48053BB6207F128031946A1
:1008DC001C4802F08BFB0346002B01D000F0D0F833
:1008EC00184802F0C6F90346002B01D000F0C8F8F6
:1008FC0000233B6200237B6207F120031946114859
:10090C0002F0E0FE0346002B01D000F0B9F86023A2
:10091C007B600023BB600023FB6000237B613B1DDD
:10092C0004221946074802F09FFA0346002B01D017
:10093C0000F0A6F8034800F013FA00BF3837BD46A4
:10094C0080BD00BF2C0100200008004080B582B0A3
:10095C0000AF0C4B5B690B4A43F001035361094B2D
:10096C005B6903F001037B607B68002200210B2094
:10097C0001F0C3F80B2001F0DCF800BF0837BD46CE
:10098C0080BD00BF0010024080B588B000AF07F1F9
:10099C00100300221A605A609A60DA60344B9B692B
:1009AC00334A43F020039361314B9B6903F02003DE
:1009BC00FB60FB682E4B9B692D4A43F0040393614B
:1009CC002B4B9B6903F00403BB60BB68284B9B69F2
:1009DC00274A43F008039361254B9B6903F00803F6
:1009EC007B607B6800224FF42071224801F045FCAB
:1009FC0000224021204801F040FC4FF420733B6161
:100A0C0001237B610023BB610223FB6107F110030F
:100A1C001946184801F096FA4FF480533B61174B76
:100A2C007B610023BB6107F110031946124801F0EA
:100A3C0089FA38233B6100237B610023BB6107F1FA
:100A4C00100319460C4801F07DFA40233B61012349
:100A5C007B610023BB610223FB6107F11003194684
:100A6C00054801F06FFA00BF2037BD4680BD00BFBE
:100A7C000010024000080140000C01400000111061
:100A8C0080B400AF72B600BF00BFFDE780B485B084
:100A9C0000AF154B9B69144A43F001039361124B51
:100AAC009B6903F00103BB60BB680F4BDB690E4A0B
:100ABC0043F08053D3610C4BDB6903F080537B60B4
:100ACC007B680A4B5B68FB60FB6823F0E063FB60B0
:100ADC00FB6843F00073FB60044AFB68536000BF83
:100AEC001437BD4680BC7047001002400000014026
:100AFC0080B58AB000AF786007F1180300221A6045
:100B0C005A609A60DA607B681B683C4A93424AD10F
:100B1C003B4B9B693A4A43F400739361384B9B6996
:100B2C0003F400737B617B69354B9B69344A43F05A
:100B3C0004039361324B9B6903F004033B613B69F3
:100B4C000123BB610323FB6107F1180319462D48F0
:100B5C0001F0F8F92C4B2D4A1A602B4B00225A60ED
:100B6C00294B00229A60284B8022DA60264B4FF4E6
:100B7C0080721A61244B4FF480625A61224B2022FE
:100B8C009A61214B0022DA611F4800F0EDFF034609
:100B9C00002B01D0FFF774FF7B681B4A1A621A4ABC
:100BAC007B68536226E07B681B68194A934221D10B
:100BBC00134B9B69124A43F480639361104B9B69FE
:100BCC0003F48063FB60FB680D4B9B690C4A43F09C
:100BDC00040393610A4B9B6903F00403BB60BB687D
:100BEC000123BB610323FB6107F118031946054878
:100BFC0001F0A8F900BF2837BD4680BD0024014094
:100C0C00001002400008014058000020080002407B
:100C1C000028014080B58AB000AF786007F114035A
:100C2C0000221A605A609A60DA607B681B68254A59
:100C3C00934243D1244BDB69234A43F00073D361C5
:100C4C00214BDB6903F000733B613B691E4B9B69D5
:100C5C001D4A43F0080393611B4B9B6903F0080387
:100C6C00FB60FB684FF480737B610023BB61002346
:100C7C00FB6107F114031946144801F063F94FF4B2
:100C8C0000737B610223BB6103233B6207F11403F6
:100C9C0019460E4801F056F90D4B5B687B627B6A76
:100CAC0023F4C0437B627B6A43F0E0637B627B6A24
:100CBC0043F480437B62064A7B6A536000BF28374B
:100CCC00BD4680BD0064004000100240000C014095
:100CDC000000014080B487B000AF78607B681B686F
:100CEC001B4A93420CD11B4B9B691A4A43F4006379
:100CFC009361184B9B6903F400637B617B6922E071
:100D0C007B681B68144A93420CD1124BDB69114A65
:100D1C0043F00203D3610F4BDB6903F002033B6129
:100D2C003B6910E07B681B680C4A93420BD1094B62
:100D3C00DB69084A43F00403D361064BDB6903F01B
:100D4C000403FB60FB6800BF1C37BD4680BC7047CA
:100D5C00002C01400010024000040040000800403C
:100D6C0080B58AB000AF786007F1180300221A60D2
:100D7C005A609A60DA607B681B682E4A934219D1DC
:100D8C002D4B9B692C4A43F0040393612A4B9B69BE
:100D9C0003F004037B617B694FF48063BB61022326
:100DAC00FB6102237B6207F118031946234801F00B
:100DBC00C9F83AE07B681B68214A934218D11E4B54
:100DCC009B691D4A43F0080393611B4B9B6903F01D
:100DDC0008033B613B690123BB610223FB610223D6
:100DEC007B6207F118031946164801F0ABF81CE0BA
:100DFC007B681B68144A934217D10F4B9B690E4AB0
:100E0C0043F0080393610C4B9B6903F00803FB60F0
:100E1C00FB688023BB610223FB6102237B6207F129
:100E2C0018031946074801F08DF800BF2837BD4656
:100E3C0080BD00BF002C01400010024000080140A2
:100E4C0000040040000C01400008004080B400AFDA
:100E5C0000BFFDE780B400AF00BFFDE780B400AF7A
:100E6C0000BFFDE780B400AF00BFFDE780B400AF6A
:100E7C0000BFFDE780B400AF00BFBD4680BC70472B
:100E8C0080B400AF00BFBD4680BC704780B400AFDB
:100E9C0000BFBD4680BC704780B500AF00F07EF847
:100EAC0000BF80BD80B500AF024800F017FF00BF47
:100EBC0080BD00BF5800002080B400AF00BFBD460D
:100ECC0080BC7047FFF7F8FF0B480C490C4A002315
:100EDC0002E0D458C4500433C4188C42F9D3094AE4
:100EEC00094C002301E013600432A242FBD302F050
:100EFC00A1FCFFF74FFA7047000000200C00002007
:100F0C00CC3800080C000020D8010020FEE70000BF
:100F1C0080B500AF084B1B68074A43F01003136001
:100F2C00032000F0DFFD0F2000F008F8FFF7AEFD06
:100F3C000023184680BD00BF0020024080B582B05F
:100F4C0000AF7860124B1A68124B1B7819464FF49D
:100F5C007A73B3FBF1F3B2FBF3F3184600F0F7FD31
:100F6C000346002B01D001230EE07B680F2B0AD81F
:100F7C00002279684FF0FF3000F0BFFD064A7B6815
:100F8C001360002300E0012318460837BD4680BDDE
:100F9C0000000020080000200400002080B400AFF6
:100FAC00054B1B781A46054B1B681344034A136008
:100FBC0000BFBD4680BC704708000020D401002053
:100FCC0080B400AF024B1B681846BD4680BC70470E
:100FDC00D401002080B586B000AF78600023FB758B
:100FEC0000233B610023BB600023FB607B68002B6C
:100FFC0001D10123BEE07B689B68002B7B689B6A58
:10100C00002B09D17B680022DA627B68002283F80E
:10101C0024207868FFF76CFD786800F0F5FA034639
:10102C00FB757B689B6A03F01003002B40F09980E2
:10103C00FB7D002B40F095807B689B6A23F48853E2
:10104C0023F0020343F002027B689A627B685A68C1
:10105C007B68DB691A437B681B7B5B001343BA68B4
:10106C001343BB607B689B68B3F5807F03D07B68C0
:10107C009B68012B02D14FF4807300E000233A6986
:10108C0013433B617B681B7D012B19D17B681B7B58
:10109C00002B09D17B689B69013B5A033B691343C5
:1010AC0043F400633B610BE07B689B6A43F02002D6
:1010BC007B689A627B68DB6A43F001027B68DA62C8
:1010CC007B681B685B6823F469417B681B683A6921
:1010DC000A435A607B681B689A68284B13407A68ED
:1010EC001268B9680B4393607B689B68B3F5807F8B
:1010FC0003D07B689B68012B04D17B681B69013B87
:10110C001B05FB607B681B68DB6A23F470017B6842
:10111C001B68FA680A43DA627B681B689A68184B8A
:10112C001340BA689A420BD17B680022DA627B6862
:10113C009B6A23F0030343F001027B689A6218E078
:10114C007B689B6A23F0120343F010027B689A625F
:10115C007B68DB6A43F001027B68DA620123FB7572
:10116C0007E07B689B6A43F010027B689A6201235C
:10117C00FB75FB7D18461837BD4680BDFDF7E1FFBA
:10118C00FE0E1FFF80B586B000AFF860B9607A60C4
:10119C000023FB75FB681B68644A934204D0FB6810
:1011AC001B68634A934206D1604B5B6803F470235F
:1011BC00002B40F0B380FB6893F82430012B01D155
:1011CC000223AEE0FB68012283F82420F86800F0CB
:1011DC00C1F90346FB75FB7D002B40F09A80FB6840
:1011EC009B6A23F4706323F0010343F48072FB6861
:1011FC009A62FB681B684E4A934205D14B4B5B6865
:10120C0003F47023002B15D1FB689B6A23F4801226
:10121C00FB689A62FB681B685B6803F48063002BB5
:10122C0026D0FB689B6A23F4405343F48052FB683E
:10123C009A621DE0FB689B6A43F48012FB689A6219
:10124C00FB681B68394A934204D0FB681B68384A18
:10125C0093420DD1354B5B6803F48063002B07D0B0
:10126C00FB689B6A23F4405343F48052FB689A62F8
:10127C00FB689B6A03F48053002B06D0FB68DB6A87
:10128C0023F00602FB68DA6202E0FB680022DA62F5
:10129C00FB68002283F82420FB681B6A254A9A62AB
:1012AC00FB681B6A244ADA62FB681B6A234A1A63CE
:1012BC00FB681B686FF002021A60FB681B689A6877
:1012CC00FB681B6842F480729A60FB68186AFB68C2
:1012DC001B684C331946BA687B6800F09FFCFB68AE
:1012EC001B689B6803F46023B3F5602F08D1FB687F
:1012FC001B689A68FB681B6842F4A0029A600FE0B6
:10130C00FB681B689A68FB681B6842F480129A6041
:10131C0006E0FB68002283F8242001E00123FB7522
:10132C00FB7D18461837BD4680BD00BF0024014028
:10133C000028014097160008131700082F17000803
:10134C0080B483B000AF786000BF0C37BD4680BC62
:10135C00704780B483B000AF786000BF0C37BD46D7
:10136C0080BC704780B485B000AF786039600023D2
:10137C00FB730023BB607B6893F82430012B01D1F5
:10138C000223DCE07B68012283F824203B685B6845
:10139C00062B1CD87B681B68596B3B685A68134634
:1013AC009B001344053B1F2202FA03F3DB43194055
:1013BC003B6818683B685A6813469B001344053B0E
:1013CC0000FA03F27B681B680A435A633CE03B68F3
:1013DC005B680C2B1CD87B681B68196B3B685A68C4
:1013EC0013469B001344233B1F2202FA03F3DB43F7
:1013FC0019403B6818683B685A6813469B001344B5
:10140C00233B00FA03F27B681B680A431A631BE058
:10141C007B681B68D96A3B685A6813469B00134467
:10142C00413B1F2202FA03F3DB4319403B68186867
:10143C003B685A6813469B001344413B00FA03F285
:10144C007B681B680A43DA623B681B68092B1CD952
:10145C007B681B68D9683B681A6813465B001344A9
:10146C001E3B072202FA03F3DB4319403B689868E2
:10147C003B681A6813465B0013441E3B00FA03F2E8
:10148C007B681B680A43DA6019E07B681B68196982
:10149C003B681A6813465B001344072202FA03F3F5
:1014AC00DB4319403B6898683B681A6813465B003D
:1014BC00134400FA03F27B681B680A431A613B6809
:1014CC001B68102B03D03B681B68112B32D17B6837
:1014DC001B681D4A934225D17B681B689B6803F4EB
:1014EC000003002B26D17B681B689A687B681B68FD
:1014FC0042F400029A603B681B68102B1AD1134B04
:10150C001B68134AA2FB03239A0C13469B0013443B
:10151C005B00BB6002E0BB68013BBB60BB68002B9F
:10152C00F9D107E07B689B6A43F020027B689A62E2
:10153C000123FB737B68002283F82420FB7B184675
:10154C001437BD4680BC70470024014000000020C9
:10155C0083DE1B4380B584B000AF78600023FB6052
:10156C000023BB607B681B689B6803F00103012BA5
:10157C0040D07B681B689A687B681B6842F001024C
:10158C009A601F4B1B681F4AA2FB03239B0CBB607A
:10159C0002E0BB68013BBB60BB68002BF9D1FFF7D5
:1015AC000FFDF8601FE0FFF70BFD0246FB68D31A36
:1015BC00022B18D97B681B689B6803F00103012B75
:1015CC0011D07B689B6A43F010027B689A627B683F
:1015DC00DB6A43F001027B68DA627B68002283F8E5
:1015EC002420012307E07B681B689B6803F0010340
:1015FC00012BD8D1002318461037BD4680BD00BF43
:10160C000000002083DE1B4380B584B000AF7860FF
:10161C000023FB607B681B689B6803F00103012BB4
:10162C002ED17B681B689A687B681B6822F00102CC
:10163C009A60FFF7C5FCF8601BE0FFF7C1FC02469F
:10164C00FB68D31A022B14D97B681B689B6803F0C8
:10165C000103012B0DD17B689B6A43F010027B6860
:10166C009A627B68DB6A43F001027B68DA620123D1
:10167C0007E07B681B689B6803F00103012BDCD03F
:10168C00002318461037BD4680BD80B584B000AF2E
:10169C0078607B685B6AFB60FB689B6A03F05003B5
:1016AC00002B27D1FB689B6A43F40072FB689A629B
:1016BC00FB681B689B6803F46023B3F5602F15D19E
:1016CC00FB681B7B002B11D1FB689B6A23F4807297
:1016DC00FB689A62FB689B6A03F48053002B05D16C
:1016EC00FB689B6A43F00102FB689A62F868FEF79C
:1016FC0027FD04E0FB681B6A1B6B7868984700BFEA
:10170C001037BD4680BD80B584B000AF78607B6873
:10171C005B6AFB60F868FFF713FE00BF1037BD462D
:10172C0080BD80B584B000AF78607B685B6AFB607D
:10173C00FB689B6A43F04002FB689A62FB68DB6AB9
:10174C0043F00402FB68DA62F868FFF702FE00BFA0
:10175C001037BD4680BD80B584B000AF78607B6823
:10176C00002B01D10123EDE07B6893F82030DBB234
:10177C00002B02D17868FFF74DFA7B681B681A685A
:10178C007B681B6842F001021A60FFF719FCF860D5
:10179C0012E0FFF715FC0246FB68D31A0A2B0BD993
:1017AC007B685B6A43F400327B685A627B68052273
:1017BC0083F820200123C5E07B681B685B6803F07D
:1017CC000103002BE5D07B681B681A687B681B68DB
:1017DC0022F002021A60FFF7F3FBF86012E0FFF749
:1017EC00EFFB0246FB68D31A0A2B0BD97B685B6AAA
:1017FC0043F400327B685A627B68052283F8202010
:10180C0001239FE07B681B685B6803F00203002BDD
:10181C00E5D17B681B7E012B08D17B681B681A689D
:10182C007B681B6842F080021A6007E07B681B68CB
:10183C001A687B681B6822F080021A607B685B7EEA
:10184C00012B08D17B681B681A687B681B6842F007
:10185C0040021A6007E07B681B681A687B681B688B
:10186C0022F040021A607B689B7E012B08D17B68BA
:10187C001B681A687B681B6842F020021A6007E03C
:10188C007B681B681A687B681B6822F020021A6050
:10189C007B68DB7E012B08D17B681B681A687B6830
:1018AC001B6822F010021A6007E07B681B681A683C
:1018BC007B681B6842F010021A607B681B7F012B4F
:1018CC0008D17B681B681A687B681B6842F00802A9
:1018DC001A6007E07B681B681A687B681B6822F03B
:1018EC0008021A607B685B7F012B08D17B681B6840
:1018FC001A687B681B6842F004021A6007E07B6878
:10190C001B681A687B681B6822F004021A607B68EB
:10191C009A687B68DB681A437B681B691A437B688F
:10192C005B6942EA03017B685B685A1E7B681B6833
:10193C000A43DA617B6800225A627B68012283F8D1
:10194C002020002318461037BD4680BD80B485B0DA
:10195C0000AF78607B6803F00703FB600C4BDB681F
:10196C00BB60BA684FF6FF031340BB60FB681A02FA
:10197C00BB68134343F0BF6343F40033BB60044ABA
:10198C00BB68D36000BF1437BD4680BC704700BF36
:10199C0000ED00E080B400AF044BDB681B0A03F0E1
:1019AC0007031846BD4680BC704700BF00ED00E041
:1019BC0080B483B000AF0346FB7197F90730002B5E
:1019CC000BDBFB7903F01F02064997F907305B0923
:1019DC00012000FA02F241F8232000BF0C37BD466B
:1019EC0080BC704700E100E080B483B000AF0346D8
:1019FC003960FB7197F90730002B0ADB3B68DAB2D0
:101A0C000C4997F907301201D2B20B4483F800232A
:101A1C000AE03B68DAB20849FB7903F00F03043B98
:101A2C001201D2B20B441A7600BF0C37BD4680BCF3
:101A3C00704700BF00E100E000ED00E080B489B029
:101A4C0000AFF860B9607A60FB6803F00703FB61D4
:101A5C00FB69C3F10703042B28BF0423BB61FB699B
:101A6C000433062B02D9FB69033B00E000237B61A6
:101A7C004FF0FF32BB6902FA03F3DA43BB681A403A
:101A8C007B699A404FF0FF317B6901FA03F3D9432C
:101A9C007B680B40134318462437BD4680BC704707
:101AAC0080B582B000AF78607B68013BB3F1807F7A
:101ABC0001D301230FE00A4A7B68013B53600F21DD
:101ACC004FF0FF30FFF790FF054B00229A60044B5C
:101ADC0007221A60002318460837BD4680BD00BF98
:101AEC0010E000E080B582B000AF78607868FFF756
:101AFC002DFF00BF0837BD4680BD80B586B000AF56
:101B0C000346B9607A60FB7300237B61FFF742FFE9
:101B1C0078617A68B9687869FFF790FF024697F99F
:101B2C000F3011461846FFF75FFF00BF1837BD4650
:101B3C0080BD80B582B000AF0346FB7197F90730CA
:101B4C001846FFF735FF00BF0837BD4680BD80B58E
:101B5C0082B000AF78607868FFF7A2FF03461846A2
:101B6C000837BD4680BD000080B485B000AF7860FA
:101B7C000023FB607B68002B01D1012343E07B68D1
:101B8C001B681A46224B1344224AA2FB03231B094F
:101B9C009A007B681A647B681F4ADA637B680222AE
:101BAC0083F821207B681B681B68FB60FB6823F4AF
:101BBC007F5323F03003FB607B685A687B689B681B
:101BCC001A437B68DB681A437B681B691A437B6882
:101BDC005B691A437B689B691A437B68DB69134317
:101BEC00FA681343FB607B681B68FA681A607B68B1
:101BFC0000229A637B68012283F821207B680022F3
:101C0C0083F82020002318461437BD4680BC70474B
:101C1C00F8FFFDBFCDCCCCCC0000024080B586B027
:101C2C0000AFF860B9607A603B600023FB75FB681D
:101C3C0093F82030012B01D102234BE0FB680122E9
:101C4C0083F82020FB6893F82130DBB2012B3AD1CA
:101C5C00FB68022283F82120FB6800229A63FB6850
:101C6C001B681A68FB681B6822F001021A603B684B
:101C7C007A68B968F86800F037F9FB68DB6A002B02
:101C8C0008D0FB681B681A68FB681B6842F00E02E0
:101C9C001A600FE0FB681B681A68FB681B6822F06F
:101CAC0004021A60FB681B681A68FB681B6842F028
:101CBC000A021A60FB681B681A68FB681B6842F012
:101CCC0001021A6005E0FB68002283F82020022341
:101CDC00FB75FB7D18461837BD4680BD80B584B0BA
:101CEC0000AF78607B68DB6B1B68FB607B681B68F4
:101CFC001B68BB607B681B6C04229A40FB6813401A
:101D0C00002B4FD0BB6803F00403002B4AD07B6838
:101D1C001B681B6803F02003002B07D17B681B6832
:101D2C001A687B681B6822F004021A607B681B68C7
:101D3C00664A934229D07B681B68654A934222D03D
:101D4C007B681B68634A93421AD07B681B68624AA3
:101D5C00934212D07B681B68604A93420AD07B681E
:101D6C001B685F4A934202D14FF480030EE04FF0A0
:101D7C0080630BE04FF4802308E04FF4804305E0D0
:101D8C004FF4806302E0402300E00423554A536083
:101D9C007B68DB6A002B00F094807B68DB6A7868D8
:101DAC0098478EE07B681B6C02229A40FB681340BC
:101DBC00002B56D0BB6803F00203002B51D07B687C
:101DCC001B681B6803F02003002B0BD17B681B687E
:101DDC001A687B681B6822F00A021A607B68012271
:101DEC0083F821207B681B68384A934229D07B6892
:101DFC001B68374A934222D07B681B68354A934252
:101E0C001AD07B681B68344A934212D07B681B68DB
:101E1C00324A93420AD07B681B68314A934202D102
:101E2C004FF400130EE04FF000730BE04FF400334F
:101E3C0008E04FF4005305E04FF4007302E0202358
:101E4C0000E00223274A53607B68002283F820209D
:101E5C007B689B6A002B34D07B689B6A78689847B8
:101E6C002FE07B681B6C08229A40FB681340002B08
:101E7C0028D0BB6803F00803002B23D07B681B68B9
:101E8C001A687B681B6822F00E021A607B681A6C59
:101E9C007B68DB6B012101FA02F25A607B6801223C
:101EAC009A637B68012283F821207B68002283F8E7
:101EBC0020207B681B6B002B04D07B681B6B786825
:101ECC00984700BF00BF1037BD4680BD08000240D8
:101EDC001C00024030000240440002405800024006
:101EEC006C0002400000024080B485B000AFF86086
:101EFC00B9607A603B60FB681A6CFB68DB6B012194
:101F0C0001FA02F25A60FB681B683A685A60FB6877
:101F1C005B68102B08D1FB681B687A689A60FB68B9
:101F2C001B68BA68DA6007E0FB681B68BA689A60DD
:101F3C00FB681B687A68DA6000BF1437BD4680BC4A
:101F4C007047000080B48BB000AF7860396000231C
:101F5C007B6200233B6269E101227B6A02FA03F394
:101F6C00FB613B681B68FA691340BB61BA69FB698A
:101F7C009A4240F058813B685B689A4A93425ED023
:101F8C00984A934275D8984A934258D0964A9342AD
:101F9C006FD8964A934252D0944A934269D8944A45
:101FAC0093424CD0924A934263D8924A934246D081
:101FBC00904A93425DD8122B2AD8122B59D801A2E1
:101FCC0052F823F04B200008252000083720000889
:101FDC00792000087F2000087F2000087F2000085F
:101FEC007F2000087F2000087F2000087F20000849
:101FFC007F2000087F2000087F2000087F20000839
:10200C007F2000087F2000082D20000841200008B8
:10201C00794A934213D02CE03B68DB683B6229E0A1
:10202C003B68DB6804333B6224E03B68DB680833C5
:10203C003B621FE03B68DB680C333B621AE03B6899
:10204C009B68002B02D104233B6213E03B689B6826
:10205C00012B05D108233B627B68FA691A6109E000
:10206C0008233B627B68FA695A6103E000233B62F8
:10207C0000E000BFBB69FF2B01D87B6801E07B68E7
:10208C0004337B61BB69FF2B02D87B6A9B0002E0A7
:10209C007B6A083B9B003B617B691A680F213B699B
:1020AC0001FA03F3DB431A40396A3B6901FA03F383
:1020BC001A437B691A603B685B6803F08053002B02
:1020CC0000F0B1804D4B9B694C4A43F00103936186
:1020DC004A4B9B6903F00103BB60BB68484A7B6AAF
:1020EC009B08023352F82330FB607B6A03F0030336
:1020FC009B000F2202FA03F3DB43FA681340FB60E8
:10210C007B68404A934213D07B683F4A93420DD080
:10211C007B683E4A934207D07B683D4A934201D18B
:10212C00032306E0042304E0022302E0012300E081
:10213C0000237A6A02F0030292009340FA68134378
:10214C00FB602F497B6A9B080233FA6841F8232015
:10215C003B685B6803F48013002B06D02D4B9A6808
:10216C002C49BB6913438B6006E02A4B9A68BB6908
:10217C00DB43284913408B603B685B6803F4001316
:10218C00002B06D0234BDA682249BB691343CB6082
:10219C0006E0204BDA68BB69DB431E491340CB6079
:1021AC003B685B6803F40033002B06D0194B5A686C
:1021BC001849BB6913434B6006E0164B5A68BB6960
:1021CC00DB43144913404B603B685B6803F480337A
:1021DC00002B21D00F4B1A680E49BB6913430B60BF
:1021EC0021E000BF0000321000003110000022106E
:1021FC00000021100000121000001110001002400D
:10220C000000014000080140000C0140001001409A
:10221C0000140140000401400B4B1A68BB69DB43FE
:10222C00094913400B607B6A01337B623B681A6877
:10223C007B6A22FA03F3002B7FF48EAE00BF00BF43
:10224C002C37BD4680BC70470004014080B485B07B
:10225C0000AF78600B467B807B689A687B88134064
:10226C00002B02D00123FB7301E00023FB73FB7BEB
:10227C0018461437BD4680BC704780B483B000AF9D
:10228C0078600B467B8013467B707B78002B03D0E9
:10229C007A887B681A6103E07B881A047B681A6170
:1022AC0000BF0C37BD4680BC7047000080B586B0BF
:1022BC0000AF78607B68002B01D1012372E27B6850
:1022CC001B6803F00103002B00F08780924B5B68C6
:1022DC0003F00C03042B0CD08F4B5B6803F00C0346
:1022EC00082B12D18C4B5B6803F48033B3F5803F21
:1022FC000BD1894B1B6803F40033002B6CD07B682B
:10230C005B68002B68D101234CE27B685B68B3F5FA
:10231C00803F06D1804B1B687F4A43F480331360A7
:10232C002EE07B685B68002B0CD17B4B1B687A4AD8
:10233C0023F480331360784B1B68774A23F4802393
:10234C0013601DE07B685B68B3F5A02F0CD1724B5A
:10235C001B68714A43F4802313606F4B1B686E4AF1
:10236C0043F4803313600BE06B4B1B686A4A23F415
:10237C0080331360684B1B68674A23F48023136017
:10238C007B685B68002B13D0FEF71AFE386108E0FF
:10239C00FEF716FE02463B69D31A642B01D90323C0
:1023AC0000E25D4B1B6803F40033002BF0D014E00B
:1023BC00FEF706FE386108E0FEF702FE02463B69B6
:1023CC00D31A642B01D90323ECE1534B1B6803F4A0
:1023DC000033002BF0D100E000BF7B681B6803F0DA
:1023EC000203002B63D04C4B5B6803F00C03002BF7
:1023FC000BD0494B5B6803F00C03082B1CD1464BEC
:10240C005B6803F48033002B16D1434B1B6803F03D
:10241C000203002B05D07B681B69012B01D0012323
:10242C00C0E13D4B1B6823F0F8027B685B69DB0065
:10243C00394913430B603AE07B681B69002B20D0B1
:10244C00364B01221A60FEF7BBFD386108E0FEF73F
:10245C00B7FD02463B69D31A022B01D90323A1E134
:10246C002D4B1B6803F00203002BF0D02A4B1B688A
:10247C0023F0F8027B685B69DB00274913430B6090
:10248C0015E0264B00221A60FEF79AFD386108E031
:10249C00FEF796FD02463B69D31A022B01D90323A2
:1024AC0080E11D4B1B6803F00203002BF0D17B680D
:1024BC001B6803F00803002B3AD07B689B69002B48
:1024CC0019D0174B01221A60FEF77AFD386108E02B
:1024DC00FEF776FD02463B69D31A022B01D9032382
:1024EC0060E10D4B5B6A03F00203002BF0D001207E
:1024FC0000F09CFA1CE00A4B00221A60FEF760FD0B
:10250C0038610FE0FEF75CFD02463B69D31A022BE3
:10251C0008D9032346E100BF0010024000004242EC
:10252C0080044242924B5B6A03F00203002BE9D118
:10253C007B681B6803F00403002B00F0A6800023CB
:10254C00FB758B4BDB6903F08053002B0DD1884B53
:10255C00DB69874A43F08053D361854BDB6903F019
:10256C008053BB60BB680123FB75824B1B6803F473
:10257C008073002B18D17F4B1B687E4A43F4807309
:10258C001360FEF71DFD386108E0FEF719FD0246E9
:10259C003B69D31A642B01D9032303E1754B1B68E8
:1025AC0003F48073002BF0D07B68DB68012B06D121
:1025BC006F4B1B6A6E4A43F0010313622DE07B687C
:1025CC00DB68002B0CD16A4B1B6A694A23F00103B0
:1025DC001362674B1B6A664A23F0040313621CE008
:1025EC007B68DB68052B0CD1614B1B6A604A43F09E
:1025FC00040313625E4B1B6A5D4A43F001031362D2
:10260C000BE05B4B1B6A5A4A23F001031362584BD5
:10261C001B6A574A23F0040313627B68DB68002BA8
:10262C0015D0FEF7CDFC38610AE0FEF7C9FC024676
:10263C003B69D31A41F28832934201D90323B1E0AA
:10264C004B4B1B6A03F00203002BEED014E0FEF799
:10265C00B7FC38610AE0FEF7B3FC02463B69D31ABB
:10266C0041F28832934201D903239BE0404B1B6A11
:10267C0003F00203002BEED1FB7D012B05D13C4B6B
:10268C00DB693B4A23F08053D3617B68DB69002B09
:10269C0000F08780364B5B6803F00C03082B61D08D
:1026AC007B68DB69022B46D1334B00221A60FEF7A4
:1026BC0087FC386108E0FEF783FC02463B69D31ABD
:1026CC00022B01D903236DE0294B1B6803F0007327
:1026DC00002BF0D17B681B6AB3F5803F08D1244BEB
:1026EC005B6823F400327B689B68214913434B6081
:1026FC001F4B5B6823F474127B68196A7B685B6AF6
:10270C000B431B4913434B601B4B01221A60FEF712
:10271C0057FC386108E0FEF753FC02463B69D31ABC
:10272C00022B01D903233DE0114B1B6803F000730E
:10273C00002BF0D035E0104B00221A60FEF740FC65
:10274C00386108E0FEF73CFC02463B69D31A022BC9
:10275C0001D9032326E0064B1B6803F00073002B02
:10276C00F0D11EE07B68DB69012B07D1012319E056
:10277C000010024000700040600042420B4B5B684E
:10278C00FB60FB6803F480327B681B6A9A4206D1BB
:10279C00FB6803F470127B685B6A9A4201D00123D8
:1027AC0000E0002318461837BD4680BD00100240DB
:1027BC0080B584B000AF786039607B68002B01D1A4
:1027CC000123D0E06A4B1B6803F007033A689A4276
:1027DC0010D9674B1B6823F0070265493B6813430C
:1027EC000B60634B1B6803F007033A689A4201D0F5
:1027FC000123B8E07B681B6803F00203002B20D098
:10280C007B681B6803F00403002B05D0594B5B68F5
:10281C00584A43F4E06353607B681B6803F0080379
:10282C00002B05D0534B5B68524A43F46053536002
:10283C00504B5B6823F0F0027B689B684D49134357
:10284C004B607B681B6803F00103002B40D07B6856
:10285C005B68012B07D1474B1B6803F40033002B3B
:10286C0015D101237FE07B685B68022B07D1414BBC
:10287C001B6803F00073002B09D1012373E03D4B5F
:10288C001B6803F00203002B01D101236BE0394BD1
:10289C005B6823F003027B685B68364913434B602B
:1028AC00FEF78EFBF8600AE0FEF78AFB0246FB6837
:1028BC00D31A41F28832934201D9032353E02D4BB2
:1028CC005B6803F00C027B685B689B009A42EBD15F
:1028DC00274B1B6803F007033A689A4210D2244B2B
:1028EC001B6823F0070222493B6813430B60204B03
:1028FC001B6803F007033A689A4201D0012332E0C7
:10290C007B681B6803F00403002B08D0194B5B6831
:10291C0023F4E0627B68DB68164913434B607B68E9
:10292C001B6803F00803002B09D0124B5B6823F4DF
:10293C0060527B681B69DB000E4913434B6000F04F
:10294C0021F802460B4B5B681B0903F00F030A4985
:10295C00CB5C22FA03F3094A1360094B1B68184637
:10296C00FEF7ECFA002318461037BD4680BD00BFB9
:10297C000020024000100240A03800080000002097
:10298C000400002080B487B000AF0023FB6000235C
:10299C00BB6000237B6100237B6000233B611E4BEB
:1029AC005B68FB60FB6803F00C03042B02D0082B64
:1029BC0003D027E0194B3B6127E0FB689B0C03F02D
:1029CC000F03174AD35C7B60FB6803F48033002B46
:1029DC0010D0114B5B685B0C03F00103114AD35C04
:1029EC00BB607B680D4A03FB02F2BB68B2FBF3F3DE
:1029FC007B6104E07B680C4A02FB03F37B617B691F
:102A0C003B6102E0054B3B6100BF3B6918461C373C
:102A1C00BD4680BC704700BF0010024000127A0017
:102A2C00B0380008C038000800093D0080B485B0FB
:102A3C0000AF78600A4B1B680A4AA2FB03235B0AAF
:102A4C007A6802FB03F3FB6000BFFB685A1EFA6056
:102A5C00002BF9D100BF00BF1437BD4680BC7047B6
:102A6C0000000020D34D621080B586B000AF7860B6
:102A7C0000233B610023FB607B681B6803F00103B0
:102A8C00002B7DD00023FB754F4BDB6903F080538B
:102A9C00002B0DD14C4BDB694B4A43F08053D36177
:102AAC00494BDB6903F08053BB60BB680123FB75AA
:102ABC00464B1B6803F48073002B18D1434B1B68E7
:102ACC00424A43F480731360FEF77AFA386108E0E7
:102ADC00FEF776FA02463B69D31A642B01D903231D
:102AEC006DE03A4B1B6803F48073002BF0D0364B2F
:102AFC001B6A03F44073FB60FB68002B2ED07B68D1
:102B0C005B6803F44073FA689A4227D02E4B1B6A19
:102B1C0023F44073FB602E4B01221A602C4B0022D5
:102B2C001A60294AFB681362FB6803F00103002B4F
:102B3C0014D0FEF745FA38610AE0FEF741FA024676
:102B4C003B69D31A41F28832934201D9032336E010
:102B5C001D4B1B6A03F00203002BEED01A4B1B6AB1
:102B6C0023F440727B685B68174913430B62FB7D4F
:102B7C00012B05D1144BDB69134A23F08053D3612D
:102B8C007B681B6803F00203002B08D00E4B5B68BC
:102B9C0023F440427B689B680B4913434B607B6872
:102BAC001B6803F01003002B08D0074B5B6823F461
:102BBC0080027B68DB68044913434B600023184692
:102BCC001837BD4680BD00BF0010024000700040A9
:102BDC004004424280B582B000AF78607B68002B25
:102BEC0001D1012341E07B6893F83D30DBB2002B2F
:102BFC0006D17B68002283F83C207868FEF76AF8DF
:102C0C007B68022283F83D207B681A687B6804335A
:102C1C001946104600F0B2FA7B68012283F8462070
:102C2C007B68012283F83E207B68012283F83F20D9
:102C3C007B68012283F840207B68012283F84120C5
:102C4C007B68012283F842207B68012283F84320B1
:102C5C007B68012283F844207B68012283F845209D
:102C6C007B68012283F83D20002318460837BD46B7
:102C7C0080BD80B582B000AF78607B68002B01D13D
:102C8C00012341E07B6893F83D30DBB2002B06D189
:102C9C007B68002283F83C20786800F039F87B6868
:102CAC00022283F83D207B681A687B68043319463E
:102CBC00104600F063FA7B68012283F846207B689B
:102CCC00012283F83E207B68012283F83F207B6839
:102CDC00012283F840207B68012283F841207B6825
:102CEC00012283F842207B68012283F843207B6811
:102CFC00012283F844207B68012283F845207B68FD
:102D0C00012283F83D20002318460837BD4680BDBC
:102D1C0080B483B000AF786000BF0C37BD4680BC78
:102D2C007047000080B584B000AF786039603B68B4
:102D3C00002B09D17B6893F83E30DBB2012B14BF1A
:102D4C0001230023DBB222E03B68042B09D17B6812
:102D5C0093F83F30DBB2012B14BF01230023DBB20D
:102D6C0015E03B68082B09D17B6893F84030DBB247
:102D7C00012B14BF01230023DBB208E07B6893F81E
:102D8C004130DBB2012B14BF01230023DBB2002B3B
:102D9C0001D001235EE03B68002B04D17B6802224A
:102DAC0083F83E2013E03B68042B04D17B6802229D
:102DBC0083F83F200BE03B68082B04D17B68022290
:102DCC0083F8402003E07B68022283F841207B6873
:102DDC001B6801223968184600F050FC7B681B68A0
:102DEC001E4A934207D17B681B685A6C7B681B6830
:102DFC0042F400425A647B681B68184A93420ED016
:102E0C007B681B68B3F1804F09D07B681B68144A40
:102E1C00934204D07B681B68124A934211D17B68A1
:102E2C001B689B6803F00703FB60FB68062B10D044
:102E3C007B681B681A687B681B6842F001021A6089
:102E4C0007E07B681B681A687B681B6842F001020C
:102E5C001A60002318461037BD4680BD002C014077
:102E6C00000400400008004080B586B000AFF86058
:102E7C00B9607A600023FB75FB6893F83C30012B3A
:102E8C0001D10223AEE0FB68012283F83C207B6871
:102E9C000C2B00F29F8001A252F823F0DD2E0008CB
:102EAC00E12F0008E12F0008E12F00081D2F00087A
:102EBC00E12F0008E12F0008E12F00085F2F000828
:102ECC00E12F0008E12F0008E12F00089F2F0008D8
:102EDC00FB681B68B968184600F0B2F9FB681B6800
:102EEC009A69FB681B6842F008029A61FB681B68D0
:102EFC009A69FB681B6822F004029A61FB681B68E4
:102F0C009969BB681A69FB681B680A439A6164E09B
:102F1C00FB681B68B968184600F0F8F9FB681B6879
:102F2C009A69FB681B6842F400629A61FB681B6833
:102F3C009A69FB681B6822F480629A61FB681B68C3
:102F4C009969BB681B691A02FB681B680A439A6182
:102F5C0043E0FB681B68B968184600F041FAFB684F
:102F6C001B68DA69FB681B6842F00802DA61FB68CF
:102F7C001B68DA69FB681B6822F00402DA61FB68E3
:102F8C001B68D969BB681A69FB681B680A43DA615C
:102F9C0023E0FB681B68B968184600F08BFAFB68E5
:102FAC001B68DA69FB681B6842F40062DA61FB6833
:102FBC001B68DA69FB681B6822F48062DA61FB68C3
:102FCC001B68D969BB681B691A02FB681B680A433A
:102FDC00DA6102E00123FB7500BFFB68002283F875
:102FEC003C20FB7D18461837BD4680BD80B584B0AB
:102FFC0000AF786039600023FB737B6893F83C303A
:10300C00012B01D10223B4E07B68012283F83C2020
:10301C007B68022283F83D207B681B689B68BB6041
:10302C00BB6823F07703BB60BB6823F47F43BB60B2
:10303C007B681B68BA689A603B681B68B3F5005FD5
:10304C003ED0B3F5005F00F28780B3F5805F00F0EF
:10305C008680B3F5805F7FD8702B1AD0702B7BD80D
:10306C00602B50D0602B77D8502B3CD0502B73D882
:10307C00402B58D0402B6FD8302B64D0302B6BD8D2
:10308C00202B60D0202B67D8002B5CD0102B5AD073
:10309C0062E07B6818683B6899683B685A683B68D3
:1030AC00DB6800F0CCFA7B681B689B68BB60BB6874
:1030BC0043F07703BB607B681B68BA689A604FE08B
:1030CC007B6818683B6899683B685A683B68DB68A2
:1030DC0000F0B5FA7B681B689A687B681B6842F441
:1030EC0080429A603CE07B6818683B6859683B6892
:1030FC00DB681A4600F02CFA7B681B6850211846D6
:10310C0000F083FA2CE07B6818683B6859683B68D0
:10311C00DB681A4600F04AFA7B681B686021184687
:10312C0000F073FA1CE07B6818683B6859683B68D0
:10313C00DB681A4600F00CFA7B681B6840211846C5
:10314C0000F063FA0CE07B681A683B681B68194650
:10315C00104600F05AFA03E00123FB7300E000BFB5
:10316C007B68012283F83D207B68002283F83C2099
:10317C00FB7B18461037BD4680BD000080B485B07F
:10318C0000AF786039607B681B68FB607B68294AFC
:10319C0093420BD07B68B3F1804F07D07B68264AF3
:1031AC00934203D07B68254A934208D1FB6823F0F5
:1031BC007003FB603B685B68FA681343FB607B68D9
:1031CC001C4A93420BD07B68B3F1804F07D07B68CD
:1031DC00194A934203D07B68184A934208D1FB6882
:1031EC0023F44073FB603B68DB68FA681343FB60B5
:1031FC00FB6823F080023B685B691343FB607B68D0
:10320C00FA681A603B689A687B68DA623B681A68ED
:10321C007B689A627B68074A934203D13B681A69C0
:10322C007B681A637B6801225A6100BF1437BD4664
:10323C0080BC7047002C0140000400400008004096
:10324C0080B487B000AF786039607B681B6A7B61A3
:10325C007B681B6A23F001027B681A627B685B68DF
:10326C003B617B689B69FB60FB6823F07003FB6030
:10327C00FB6823F00303FB603B681B68FA6813438D
:10328C00FB607B6923F002037B613B689B687A6976
:10329C0013437B617B681C4A93420CD17B6923F0FE
:1032AC0008037B613B68DB687A6913437B617B694C
:1032BC0023F004037B617B68134A934211D13B6971
:1032CC0023F480733B613B6923F400733B613B68DF
:1032DC005B693A6913433B613B689B693A691343E9
:1032EC003B617B683A695A607B68FA689A613B6813
:1032FC005A687B685A637B687A691A6200BF1C370C
:10330C00BD4680BC704700BF002C014080B487B024
:10331C0000AF786039607B681B6A7B617B681B6AD5
:10332C0023F010027B681A627B685B683B617B68E8
:10333C009B69FB60FB6823F4E043FB60FB6823F4B0
:10334C004073FB603B681B681B02FA681343FB600D
:10335C007B6923F020037B613B689B681B017A69C6
:10336C0013437B617B681D4A93420DD17B6923F02B
:10337C0080037B613B68DB681B017A6913437B61CB
:10338C007B6923F040037B617B68144A934213D121
:10339C003B6923F480633B613B6923F400633B612D
:1033AC003B685B699B003A6913433B613B689B69D3
:1033BC009B003A6913433B617B683A695A607B68AE
:1033CC00FA689A613B685A687B689A637B687A6989
:1033DC001A6200BF1C37BD4680BC7047002C0140F0
:1033EC0080B487B000AF786039607B681B6A7B6102
:1033FC007B681B6A23F480727B681A627B685B684B
:10340C003B617B68DB69FB60FB6823F07003FB604E
:10341C00FB6823F00303FB603B681B68FA681343EB
:10342C00FB607B6923F400737B613B689B681B0228
:10343C007A6913437B617B681D4A93420DD17B698A
:10344C0023F400637B613B68DB681B027A691343DE
:10345C007B617B6923F480637B617B68144A9342B4
:10346C0013D13B6923F480533B613B6923F4005334
:10347C003B613B685B691B013A6913433B613B68E9
:10348C009B691B013A6913433B617B683A695A603B
:10349C007B68FA68DA613B685A687B68DA637B6838
:1034AC007A691A6200BF1C37BD4680BC704700BFEA
:1034BC00002C014080B487B000AF786039607B6825
:1034CC001B6A3B617B681B6A23F480527B681A621F
:1034DC007B685B687B617B68DB69FB60FB6823F462
:1034EC00E043FB60FB6823F44073FB603B681B68A4
:1034FC001B02FA681343FB603B6923F400533B61E6
:10350C003B689B681B033A6913433B617B680F4A1A
:10351C00934209D17B6923F480437B613B685B69EF
:10352C009B017A6913437B617B687A695A607B687B
:10353C00FA68DA613B685A687B681A647B683A6996
:10354C001A6200BF1C37BD4680BC7047002C01407E
:10355C0080B487B000AFF860B9607A60FB681B6A12
:10356C007B61FB681B6A23F00102FB681A62FB6833
:10357C009B693B613B6923F0F0033B617B681B015A
:10358C003A6913433B617B6923F00A037B617A69D7
:10359C00BB6813437B61FB683A699A61FB687A6983
:1035AC001A6200BF1C37BD4680BC704780B487B020
:1035BC0000AFF860B9607A60FB681B6A7B61FB68DE
:1035CC001B6A23F01002FB681A62FB689B693B6163
:1035DC003B6923F470433B617B681B033A691343DB
:1035EC003B617B6923F0A0037B61BB681B017A699B
:1035FC0013437B61FB683A699A61FB687A691A62CA
:10360C0000BF1C37BD4680BC704780B485B000AF8E
:10361C00786039607B689B68FB60FB6823F0700303
:10362C00FB603A68FB68134343F00703FB607B685D
:10363C00FA689A6000BF1437BD4680BC704780B4EE
:10364C0087B000AFF860B9607A603B60FB689B683C
:10365C007B617B6923F47F437B613B681A027B6847
:10366C001A43BB6813437A6913437B61FB687A691D
:10367C009A6000BF1C37BD4680BC704780B487B0D1
:10368C0000AFF860B9607A60BB6803F01F030122D9
:10369C0002FA03F37B61FB681A6A7B69DB431A400D
:1036AC00FB681A62FB681A6ABB6803F01F0379682F
:1036BC0001FA03F31A43FB681A6200BF1C37BD46BC
:1036CC0080BC704780B485B000AF786039607B688F
:1036DC0093F83C30012B01D1022346E07B68012298
:1036EC0083F83C207B68022283F83D207B681B68B2
:1036FC005B68FB607B681B689B68BB60FB6823F0A6
:10370C007003FB603B681B68FA681343FB607B68C3
:10371C001B68FA685A607B681B68164A93420ED085
:10372C007B681B68B3F1804F09D07B681B68124A19
:10373C00934204D07B681B68104A93420CD1BB683F
:10374C0023F08003BB603B685B68BA681343BB60C3
:10375C007B681B68BA689A607B68012283F83D20FD
:10376C007B68002283F83C20002318461437BD46A2
:10377C0080BC7047002C0140000400400008004051
:10378C0080B485B000AF786039600023FB607B6843
:10379C0093F83C30012B01D102233DE07B680122E0
:1037AC0083F83C20FB6823F0FF023B68DB68134383
:1037BC00FB60FB6823F440723B689B681343FB601F
:1037CC00FB6823F480623B685B681343FB60FB6817
:1037DC0023F400623B681B681343FB60FB6823F413
:1037EC0080523B681B691343FB60FB6823F4005257
:1037FC003B685B691343FB60FB6823F480423B68C6
:10380C00DB691343FB607B681B68FA685A647B684E
:10381C00002283F83C20002318461437BD4680BC98
:10382C00704703460244934200D1704703F8011BD2
:10383C00F9E7000070B500260C4D0D4C641BA4106C
:10384C00A64209D100F01AF800260A4D0A4C641B56
:10385C00A410A64205D170BD55F8043B984701361B
:10386C00EEE755F8043B98470136F2E7C4380008F8
:10387C00C4380008C4380008C8380008F8B500BFC0
:10388C00F8BC08BC9E467047F8B500BFF8BC08BC35
:04389C009E4670478D
:1038A00000000000000000000102030406070809F0
:1038B00002030405060708090A0B0C0D0E0F101071
:0438C0000102000001
:0438C40031010008C6
:0438C8000D010008E6
:0C38CC000024F4001000000001000000C7
:0400000508000ED110
:00000001FF
