:020000040800F2
:1000000000500020451D0008CD1C0008D51C00082C
:10001000DD1C0008E51C0008ED1C000800000000C5
:10002000000000000000000000000000F51C0008B7
:10003000011D0008000000000D1D0008191D00082A
:100040008D1D00088D1D00088D1D00088D1D0008E8
:100050008D1D00088D1D00088D1D00088D1D0008D8
:100060008D1D00088D1D00088D1D0008251D000830
:100070008D1D00088D1D00088D1D00088D1D0008B8
:100080008D1D00088D1D00088D1D00088D1D0008A8
:100090008D1D00088D1D00088D1D00088D1D000898
:1000A0008D1D00088D1D00088D1D00088D1D000888
:1000B000251900088D1D00088D1D00088D1D0008E4
:1000C0008D1D00088D1D00088D1D00088D1D000868
:1000D0008D1D00088D1D00088D1D00088D1D000858
:1000E0008D1D00088D1D00088D1D000800000000FA
:1000F0000000000000000000000000000000000000
:0C01000000000000000000005FF808F1A3
:1001100010B5054C237833B9044B13B10448AFF341
:1001200000800123237010BD0C000020000000009F
:100130002848000808B5034B1BB103490348AFF337
:10014000008008BD000000001000002028480008C2
:1001500070B54FF0FF0C4CF4E06C1CEA11541DBF5D
:100160001CEA135594EA0C0F95EA0C0F00F0DEF828
:100170002C4481EA030621EA4C5123EA4C5350EA0D
:10018000013518BF52EA033541F4801143F480135E
:1001900038D0A0FB02CE4FF00005E1FB02E506F0EF
:1001A0000042E0FB03E54FF00006E1FB03569CF044
:1001B000000F18BF4EF0010EA4F1FF04B6F5007F4A
:1001C00064F5407404D25FEA4E0E6D4146EB0606BC
:1001D00042EAC62141EA55514FEAC52040EA5E5045
:1001E0004FEACE2EB4F1FD0C88BFBCF5E06F1ED8EF
:1001F000BEF1004F08BF5FEA500E50F1000041EB26
:10020000045170BD06F0004646EA010140EA0200D2
:1002100081EA0301B4EB5C04C2BFD4EB0C0541EAF4
:10022000045170BD41F480114FF0000E013C00F309
:10023000AB8014F1360FDEBF002001F0004170BD2D
:10024000C4F10004203C35DA0C341BDC04F1140446
:10025000C4F1200500FA05F320FA04F001FA05F2D2
:1002600040EA020001F0004221F0004110EBD3709F
:1002700021FA04F642EB06015EEA430E08BF20EACB
:10028000D37070BDC4F10C04C4F1200500FA04F36E
:1002900020FA05F001FA04F240EA020001F0004100
:1002A00010EBD37041F100015EEA430E08BF20EA73
:1002B000D37070BDC4F1200500FA05F24EEA020EBB
:1002C00020FA04F301FA05F243EA020321FA04F0EA
:1002D00001F0004121FA04F220EA020000EBD370A1
:1002E0005EEA430E08BF20EAD37070BD94F0000FA1
:1002F0000FD101F00046400041EB010111F4801FD5
:1003000008BF013CF7D041EA060195F0000F18BF85
:10031000704703F00046520043EB030313F4801FC1
:1003200008BF013DF7D043EA0603704794EA0C0F7B
:100330000CEA135518BF95EA0C0F0CD050EA410691
:1003400018BF52EA4306D1D181EA030101F000410E
:100350004FF0000070BD50EA410606BF1046194636
:1003600052EA430619D094EA0C0F02D150EA013642
:1003700013D195EA0C0F05D152EA03361CBF104683
:1003800019460AD181EA030101F0004141F0FE4122
:1003900041F470014FF0000070BD41F0FE4141F4A6
:1003A000780170BD81F0004102E000BF83F000439E
:1003B00030B54FEA41044FEA430594EA050F08BF00
:1003C00090EA020F1FBF54EA000C55EA020C7FEAC4
:1003D000645C7FEA655C00F0E2804FEA5454D4EB41
:1003E0005555B8BF6D420CDD2C4480EA020281EA0B
:1003F000030382EA000083EA010180EA020281EA43
:100400000303362D88BF30BD11F0004F4FEA013194
:100410004FF4801C4CEA113102D0404261EB4101A3
:1004200013F0004F4FEA03334CEA133302D0524229
:1004300063EB430394EA050F00F0A780A4F10104E5
:10044000D5F1200E0DDB02FA0EFC22FA05F280181F
:1004500041F1000103FA0EF2801843FA05F3594105
:100460000EE0A5F120050EF1200E012A03FA0EFC84
:1004700028BF4CF0020C43FA05F3C01851EBE371AE
:1004800001F0004507D54FF0000EDCF1000C7EEBCB
:1004900000006EEB0101B1F5801F1BD3B1F5001F09
:1004A0000CD349085FEA30004FEA3C0C04F1010428
:1004B0004FEA445212F5800F80F09A80BCF1004F51
:1004C00008BF5FEA500C50F1000041EB045141EAD3
:1004D000050130BD5FEA4C0C404141EB0101013C9C
:1004E00028BFB1F5801FE9D291F0000F04BF01468B
:1004F0000020B1FA81F308BF2033A3F10B03B3F15D
:1005000020020CDA0C3208DD02F1140CC2F10C02EC
:1005100001FA0CF021FA02F10CE002F11402D8BF4A
:10052000C2F1200C01FA02F120FA0CFCDCBF41EA16
:100530000C019040E41AA2BF01EB0451294330BDE5
:100540006FEA04041F3C1CDA0C340EDC04F11404C2
:10055000C4F1200220FA04F001FA02F340EA030099
:1005600021FA04F345EA030130BDC4F10C04C4F1DF
:10057000200220FA02F001FA04F340EA03002946BF
:1005800030BD21FA04F0294630BD94F0000F83F409
:10059000801306BF81F480110134013D4EE77FEAEC
:1005A000645C18BF7FEA655C29D094EA050F08BF38
:1005B00090EA020F05D054EA000C04BF1946104619
:1005C00030BD91EA030F1EBF0021002030BD5FEA5D
:1005D000545C05D14000494128BF41F0004130BD85
:1005E00014F580043CBF01F5801130BD01F00045D9
:1005F00045F0FE4141F470014FF0000030BD7FEA4C
:10060000645C1ABF194610467FEA655C1CBF0B4646
:10061000024650EA013406BF52EA033591EA030F5D
:1006200041F4002130BD00BF90F0000F04BF002155
:10063000704730B54FF4806404F132044FF0000588
:100640004FF0000150E700BF90F0000F04BF002101
:10065000704730B54FF4806404F1320410F0004567
:1006600048BF40424FF000013EE700BF42004FEA62
:10067000E2014FEA31014FEA02701FBF12F07F43DF
:1006800093F07F4F81F06051704732F07F4208BF96
:10069000704793F07F4F04BF41F40021704730B59D
:1006A0004FF4607401F0004521F000411CE700BFE9
:1006B00050EA010208BF704730B54FF000050AE06C
:1006C00050EA010208BF704730B511F0004502D56D
:1006D000404261EB41014FF4806404F132045FEA6F
:1006E000915C3FF4D8AE4FF003025FEADC0C18BF18
:1006F00003325FEADC0C18BF033202EBDC02C2F10A
:10070000200300FA03FC20FA02F001FA03FE40EA9B
:100710000E0021FA02F11444BDE600BF4FEA410287
:10072000B2F1E04324BFB3F5001CDCF1FE5C0DD94F
:1007300001F0004C4FEAC0024CEA5070B2F1004F99
:1007400040EB830008BF20F00100704711F0804F9C
:1007500021D113F13872BCBF01F00040704741F461
:1007600080114FEA5252C2F11802C2F1200C10FA65
:100770000CF320FA02F018BF40F001004FEAC12349
:100780004FEAD32303FA0CFC40EA0C0023FA02F3ED
:100790004FEA4303CCE77FEA625307D150EA0133C3
:1007A0001EBF4FF0FE4040F44000704701F0004093
:1007B00040F0FE4040F40000704700BF80F0004071
:1007C00002E000BF81F0004142001FBF5FEA410329
:1007D00092EA030F7FEA226C7FEA236C6AD04FEA29
:1007E0001262D2EB1363C1BFD2184140484041406E
:1007F000B8BF5B42192B88BF704710F0004F40F420
:10080000000020F07F4018BF404211F0004F41F43B
:10081000000121F07F4118BF494292EA030F3FD007
:10082000A2F1010241FA03FC10EB0C00C3F120031A
:1008300001FA03F100F0004302D5494260EB4000A9
:10084000B0F5000F13D3B0F1807F06D340084FEA14
:10085000310102F10102FE2A51D2B1F1004F40EB09
:10086000C25008BF20F0010040EA03007047490071
:1008700040EB0000013A28BFB0F5000FEDD2B0FA0E
:1008800080FCACF1080CB2EB0C0200FA0CF0AABF31
:1008900000EBC25052421843BCBFD04018437047CF
:1008A00092F0000F81F4000106BF80F400000132D5
:1008B000013BB5E74FEA41037FEA226C18BF7FEAAC
:1008C000236C21D092EA030F04D092F0000F08BFEE
:1008D0000846704790EA010F1CBF0020704712F0D5
:1008E0007F4F04D1400028BF40F00040704712F114
:1008F00000723CBF00F50000704700F0004343F079
:10090000FE4040F4000070477FEA226216BF0846AE
:100910007FEA23630146420206BF5FEA412390EA71
:10092000010F40F4800070474FF0000304E000BF67
:1009300010F0004348BF40425FEA000C08BF704718
:1009400043F0964301464FF000001CE050EA0102DC
:1009500008BF70474FF000030AE000BF50EA0102F1
:1009600008BF704711F0004302D5404261EB4101DE
:100970005FEA010C02BF84460146002043F0B64303
:1009800008BFA3F18053A3F50003BCFA8CF2083A28
:10099000A3EBC25310DB01FA02FC634400FA02FC31
:1009A000C2F12002BCF1004F20FA02F243EB020038
:1009B00008BF20F00100704702F1200201FA02FC9A
:1009C000C2F1200250EA4C0021FA02F243EB02008D
:1009D00008BF20EADC7070474FF0FF0C1CEAD052D1
:1009E0001EBF1CEAD15392EA0C0F93EA0C0F6FD092
:1009F0001A4480EA010C400218BF5FEA41211ED070
:100A00004FF0006343EA501043EA5111A0FB01315B
:100A10000CF00040B1F5000F3EBF490041EAD37130
:100A20005B0040EA010062F17F02FD2A1DD8B3F1AC
:100A3000004F40EBC25008BF20F00100704790F01B
:100A4000000F0CF0004C08BF49024CEA502040EA6D
:100A500051207F3AC2BFD2F1FF0340EAC250704733
:100A600040F400004FF00003013A5DDC12F1190F71
:100A7000DCBF00F000407047C2F10002410021FAE3
:100A800002F1C2F1200200FA02FC5FEA310040F1FB
:100A9000000053EA4C0308BF20EADC70704792F074
:100AA000000F00F0004C02BF400010F4000F013AAC
:100AB000F9D040EA0C0093F0000F01F0004C02BFA7
:100AC000490011F4000F013BF9D041EA0C018FE716
:100AD0000CEAD15392EA0C0F18BF93EA0C0F0AD01C
:100AE00030F0004C18BF31F0004CD8D180EA010042
:100AF00000F00040704790F0000F17BF90F0004FDB
:100B0000084691F0000F91F0004F14D092EA0C0FBC
:100B100001D142020FD193EA0C0F03D14B0218BF4F
:100B2000084608D180EA010000F0004040F0FE4095
:100B300040F40000704740F0FE4040F44000704731
:100B40004FF0FF0C1CEAD0521EBF1CEAD15392EAB0
:100B50000C0F93EA0C0F69D0A2EB030280EA010CA0
:100B600049024FEA402037D04FF0805343EA111139
:100B700043EA10130CF000408B4238BF5B0042F197
:100B80007D024FF4000C8B4224BF5B1A40EA0C003C
:100B9000B3EB510F24BFA3EB510340EA5C00B3EB6E
:100BA000910F24BFA3EB910340EA9C00B3EBD10F5C
:100BB00024BFA3EBD10340EADC001B0118BF5FEAAE
:100BC0001C1CE0D1FD2A3FF650AF8B4240EBC250D7
:100BD00008BF20F0010070470CF0004C4CEA502098
:100BE0007F32C2BFD2F1FF0340EAC250704740F4E7
:100BF00000004FF00003013A37E792F0000F00F0D9
:100C0000004C02BF400010F4000F013AF9D040EA56
:100C10000C0093F0000F01F0004C02BF490011F4EA
:100C2000000F013BF9D041EA0C0195E70CEAD153E2
:100C300092EA0C0F08D142027FF47DAF93EA0C0FC9
:100C40007FF470AF084676E793EA0C0F04D14B02AD
:100C50003FF44CAF08466EE730F0004C18BF31F05F
:100C6000004CCAD130F000427FF45CAF31F0004359
:100C70007FF43CAF5FE700BF80B582B000AF786023
:100C80003960294B1B681846FFF74EFE034627497B
:100C90001846FFF755FF03461A46254B1A60244BAA
:100CA0001B6824491846FFF797FE03462249184659
:100CB000FFF746FF03461A467B681A607B681B688D
:100CC0001846FFF7D3FC14A3D3E90023FFF740FA3B
:100CD00002460B4610461946FFF720FD034615490C
:100CE0001846FFF72DFF03461846FFF7BFFC0CA37D
:100CF000D3E90023FFF72CFA02460B4610461946AB
:100D0000FFF70CFD02463B681A6000BF0837BD467E
:100D100080BD00BFAFF300803E0AD7A31A17014081
:100D2000CDCCCCCCCCCC0C40280000200AD7A33CA6
:100D30002C0000200000704200001C4380B582B0EF
:100D400000AF7860064A7B681360054B1B68012280
:100D50000449184601F056F900BF0837BD4680BD6A
:100D6000380000203000002080B485B000AF03467A
:100D7000FB800023FB60174B1B785A1CD1B2154A2D
:100D800011701946144AFB8822F81130114B1B7858
:100D9000092B02D90F4B00221A700023FB720AE0C4
:100DA000FB7A0D4A32F813301A46FB681344FB6095
:100DB000FB7A0133FB72FB7A092BF1D9FB68074AF6
:100DC000A2FB0323DB089BB218461437BD4680BC48
:100DD000704700BF3C00002040000020CDCCCCCCB0
:100DE00080B500AF144B1B881846FFF7BDFF0346C4
:100DF0001A46124B1A80114B1B881A46622302FBBB
:100E000003F30F4A82FB03121A44D212DB17D31AE0
:100E10009AB20C4B1A800B4B1B88622B03D9094BDF
:100E200062221A8006E0074B1B88042B02D8054B70
:100E300000221A8000BF80BD300000203200002058
:100E4000810008803400002080B500AF00F0A0FFD2
:100E500000F03CF800F0ECFA00F0CCFA00F094F866
:100E600000F0D0F800F0C6F900F044FA00F076F98E
:100E70001148FFF763FF114802F04EFD08211048AA
:100E800002F0F4FD04210E4802F0F0FD04210D48AB
:100E900002F0ECFD08210B4802F0E8FD00210A48B1
:100EA00002F0E4FD0421084802F0E0FDFFF798FF9E
:100EB00000F016FB00BFF9E75400002010010020ED
:100EC000C800002058010020A001002080B594B087
:100ED00000AF07F1280328220021184603F077FC11
:100EE00007F1140300221A605A609A60DA601A61EE
:100EF0003B1D00221A605A609A60DA600123BB62CF
:100F00004FF48033FB624FF400333B630123BB6338
:100F100002237B644FF48033BB644FF4E013FB6423
:100F200007F12803184602F011F80346002B01D000
:100F300000F032FD0F237B610223BB610023FB61C4
:100F40004FF480633B624FF480637B6207F11403CC
:100F50000221184602F07CFA0346002B01D000F073
:100F60001BFD02237B604FF48043FB603B1D184652
:100F700002F0CCFB0346002B01D000F00DFD00BFBA
:100F80005037BD4680BD000080B584B000AF3B1D2A
:100F900000221A605A609A60184B194A1A60174B5F
:100FA00000229A60154B01221A73144B00221A7505
:100FB000124B4FF46022DA61104B00225A600F4B43
:100FC00001221A610D4800F045FF0346002B01D0B5
:100FD00000F0E2FC00237B600123BB600223FB6086
:100FE0003B1D1946054801F007F90346002B01D0C7
:100FF00000F0D2FC00BF1037BD4680BD5400002079
:101000000024014080B596B000AF07F148030022EC
:101010001A605A609A60DA6007F1400300221A6091
:101020005A6007F1240300221A605A609A60DA605D
:101030001A615A619A613B1D20220021184603F073
:10104000C6FB444B444A1A60424B47225A60414B0C
:1010500000229A603F4B6422DA603E4B00221A6104
:101060003C4B00225A613B4B80229A61394802F086
:1010700003FC0346002B01D000F08EFC4FF480539C
:10108000BB6407F148031946324802F043FF0346A8
:10109000002B01D000F080FC2E4802F08FFC0346AC
:1010A000002B01D000F078FC00233B6400237B641C
:1010B00007F140031946274803F0C8FA0346002BFE
:1010C00001D000F069FC60237B620023BB62002337
:1010D000FB6200233B6300237B630023BB6300238D
:1010E000FB6307F12403042219461A4802F050FE5C
:1010F0000346002B01D000F04FFC07F12403082227
:101100001946144802F044FE0346002B01D000F0BB
:1011100043FC00237B600023BB600023FB600023B3
:101120003B6100237B614FF40053BB6100233B62B2
:101130003B1D1946074803F0E7FA0346002B01D090
:1011400000F02AFC034800F027FD00BF5837BD46D9
:1011500080BD00BFC8000020002C014080B586B0D3
:1011600000AF07F1080300221A605A609A60DA6043
:101170003B4600221A605A601D4B4FF080421A60B5
:101180001B4B47225A601A4B00229A60184B40F2C0
:10119000E732DA60164B00221A61154B80229A6101
:1011A000134802F069FB0346002B01D000F0F4FB6A
:1011B0004FF48053BB6007F1080319460C4802F056
:1011C000A9FE0346002B01D000F0E6FB00233B60A4
:1011D00000237B603B461946054803F037FA034677
:1011E000002B01D000F0D8FB00BF1837BD4680BDF2
:1011F0001001002080B58EB000AF07F12803002257
:101200001A605A609A60DA6007F1200300221A60BF
:101210005A603B1D00221A605A609A60DA601A61B7
:101220005A619A61314B324A1A60304B47225A60F8
:101230002E4B00229A602D4B6422DA602B4B002249
:101240001A612A4B80229A61284802F015FB034656
:10125000002B01D000F0A0FB4FF48053BB6207F1DC
:1012600028031946214802F055FE0346002B01D001
:1012700000F092FB1D4802F0A1FB0346002B01D0B9
:1012800000F08AFB00233B6200237B6207F120030E
:101290001946164803F0DAF90346002B01D000F096
:1012A0007BFB60237B600023BB600023FB6000238B
:1012B0007B613B1D042219460C4802F069FD034680
:1012C000002B01D000F068FB3B1D0822194607489F
:1012D00002F05EFD0346002B01D000F05DFB0348E9
:1012E00000F05AFC00BF3837BD4680BD58010020D1
:1012F0000004004080B58EB000AF07F12803002243
:101300001A605A609A60DA6007F1200300221A60BE
:101310005A603B1D00221A605A609A60DA601A61B6
:101320005A619A61314B324A1A60304B47225A60F7
:101330002E4B00229A602D4B6422DA602B4B002248
:101340001A612A4B80229A61284802F095FA0346D6
:10135000002B01D000F020FB4FF48053BB6207F15B
:1013600028031946214802F0D5FD0346002B01D081
:1013700000F012FB1D4802F021FB0346002B01D0B8
:1013800000F00AFB00233B6200237B6207F120038D
:101390001946164803F05AF90346002B01D000F015
:1013A000FBFA60237B600023BB600023FB6000230B
:1013B0007B613B1D002219460C4802F0E9FC034604
:1013C000002B01D000F0E8FA3B1D04221946074823
:1013D00002F0DEFC0346002B01D000F0DDFA0348EA
:1013E00000F0DAFB00BF3837BD4680BDA001002009
:1013F0000008004080B582B000AF0C4B5B690B4A1F
:1014000043F001035361094B5B6903F001037B6007
:101410007B68002200210B2001F0BFF90B2001F0B6
:10142000D8F900BF0837BD4680BD00BF001002409C
:1014300080B588B000AF07F1100300221A605A602F
:101440009A60DA60234B9B69224A43F02003936140
:10145000204B9B6903F02003FB60FB681D4B9B69DD
:101460001C4A43F0040393611A4B9B6903F0040385
:10147000BB60BB68174B9B69164A43F00803936136
:10148000144B9B6903F008037B607B6801220221F7
:10149000114801F042FD02233B6101237B610023DF
:1014A000BB610123FB6107F1100319460A4801F0F3
:1014B00099FB38233B6100237B610023BB6107F16B
:1014C00010031946054801F08DFB00BF2037BD46CB
:1014D00080BD00BF0010024000080140000C014028
:1014E00080B582B000AF3B4600210A461A800A460A
:1014F0009A700023FB7120E008213D4801F0F6FCC2
:1015000003461A463B781344DBB23B70102138483F
:1015100001F0ECFC03461A467B781344DBB27B7087
:101520002021334801F0E2FC03461A46BB781344FD
:10153000DBB2BB70FB790133FB71FB79022BDBD98A
:101540000023BB713B78002B03D0BB7943F0010330
:10155000BB717B78002B03D0BB7943F00203BB71D6
:10156000BB78002B03D0BB7943F00403BB71BB797C
:1015700003F00703BB711F4B1A781F4B1A70BB791E
:10158000072B2FD801A252F823F000BFDD15000869
:10159000D5150008B5150008AD150008C5150008DB
:1015A000CD150008BD150008DD150008114B0022FF
:1015B0001A7017E00F4B01221A7013E00D4B022234
:1015C0001A700FE00B4B03221A700BE0094B042238
:1015D0001A7007E0074B05221A7003E0054B06223C
:1015E0001A7000BF00F00AF800BF0837BD4680BD82
:1015F000000C0140F5010020F401002080B500AF8F
:1016000000F0B4F8544B1B78062B00F2A28001A224
:1016100052F823F0311600085B1600088516000802
:10162000AF160008D9160008031700082D17000888
:101630004A4B0022DA63494B00229A63484B1A88CE
:10164000484B9A63474B00225A63474B0022DA63A8
:10165000434B1A88444B9A637BE0404B0022DA6389
:101660003F4B1A883D4B9A633D4B1A883D4B9A631A
:101670003C4B00225A633C4B0022DA633A4B002277
:101680009A6366E0354B0022DA63354B1A88334B98
:101690009A63344B00229A63324B00225A63304BD8
:1016A0001A88314BDA63304B00229A6351E02B4B9E
:1016B0000022DA63294B00229A632A4B00229A63A4
:1016C000274B1A88274B5A63254B1A88264BDA6317
:1016D000254B00229A633CE0214B1A881F4BDA63AA
:1016E0001E4B00229A631F4B00229A631C4B1A88E0
:1016F0001C4B5A631C4B0022DA631B4B00229A637B
:1017000027E0174B1A88154BDA63144B00229A63B3
:10171000144B00229A63134B00225A63124B00228F
:10172000DA630F4B1A88104B9A6312E00B4B0022BE
:10173000DA630A4B00229A630A4B00229A63094B30
:1017400000225A63084B0022DA63074B00229A6397
:1017500000BF00BF80BD00BFF5010020002C01408C
:1017600034000020000800400004004080B500AFB5
:10177000594B1A78594B1B789A4200F0A780584B66
:101780001B680133564A1360544B1B78052B00F23B
:10179000878001A252F823F0B1170008D91700087A
:1017A00001180008291800085118000879180008C5
:1017B0004C4B0022DA634B4B00229A634A4B1A8847
:1017C0004A4B9A63494B00225A63494B0022DA6321
:1017D000474B00229A6376E0424B0022DA63424B89
:1017E0001A88404B9A63414B00229A633F4B002278
:1017F0005A633F4B0022DA633D4B00229A6362E05A
:10180000384B0022DA63374B00229A63374B0022B1
:101810009A63364B00225A63334B1A88344BDA638F
:10182000334B00229A634EE02E4B0022DA632D4B9D
:1018300000229A632D4B00229A632B4B1A882B4B64
:101840005A632B4B0022DA63294B00229A633AE059
:10185000254B1A88234BDA63224B00229A63234BD1
:1018600000229A63214B00225A63214B0022DA6343
:101870001F4B00229A6326E01A4B0022DA63194BB1
:1018800000229A63194B00229A63184B00225A6374
:10189000174B0022DA63144B1A88154B9A6312E037
:1018A000104B0022DA630F4B00229A630F4B002289
:1018B0009A630E4B00225A630D4B0022DA630C4BE5
:1018C00000229A6300BF012000F014F8034B1A783D
:1018D000014B1A7000BF80BDF4010020F50100200B
:1018E00028000020002C01403400002000080040A7
:1018F0000004004080B483B000AF0346FB80084B77
:101900001B6800225A6200BF054B1B685A6AFB889D
:101910009A42F9D300BF00BF0C37BD4680BC704768
:101920001001002080B500AF024802F041F900BF6D
:1019300080BD00BF1001002080B582B000AF78608C
:101940007B681B68B3F1804F17D10E4B1B680133C6
:101950000C4A13600B4B1A680B4BA3FB02139B0939
:10196000C82101FB03F3D31A002B06D1074908480D
:10197000FFF782F9074B00221A6000BF0837BD4607
:1019800080BD00BFE80100201F85EB51F001002061
:10199000EC0100202800002080B400AF72B600BF28
:1019A00000BFFDE780B485B000AF154B9B69144ABA
:1019B00043F001039361124B9B6903F00103BB6089
:1019C000BB680F4BDB690E4A43F08053D3610C4B6D
:1019D000DB6903F080537B607B680A4B5B68FB60CC
:1019E000FB6823F0E063FB60FB6843F08063FB600F
:1019F000044AFB68536000BF1437BD4680BC704783
:101A0000001002400000014080B588B000AF78604F
:101A100007F1100300221A605A609A60DA607B684E
:101A20001B68284A934249D1274B9B69264A43F4B5
:101A300000739361244B9B6903F40073FB60FB68A4
:101A4000214B9B69204A43F0040393611E4B9B6921
:101A500003F00403BB60BB6801233B6103237B618C
:101A600007F110031946194801F0BCF8184B194A40
:101A70001A60174B00225A60154B00229A60144BD3
:101A80008022DA60124B4FF480721A61104B4FF4CF
:101A900080625A610E4B20229A610D4B0022DA615E
:101AA0000B4800F0B1FE0346002B01D0FFF774FF96
:101AB0007B68074A1A62064A7B68536200BF203778
:101AC000BD4680BD002401400010024000080140D6
:101AD000840000200800024080B586B000AF786026
:101AE0007B681B68284A93420CD1284B9B69274A84
:101AF00043F400639361254B9B6903F400637B61AE
:101B00007B693CE07B681B68B3F1804F14D11F4BAD
:101B1000DB691E4A43F00103D3611C4BDB6903F010
:101B200001033B613B69002200211C2000F035FECF
:101B30001C2000F04EFE22E07B681B68144A934292
:101B40000CD1124BDB69114A43F00203D3610F4BF6
:101B5000DB6903F00203FB60FB6810E07B681B6835
:101B60000C4A93420BD1094BDB69084A43F004034A
:101B7000D361064BDB6903F00403BB60BB6800BFA5
:101B80001837BD4680BD00BF002C01400010024048
:101B9000000400400008004080B58AB000AF7860C3
:101BA00007F1180300221A605A609A60DA607B68B5
:101BB0001B68404A934226D13F4B9B693E4A43F003
:101BC000040393613C4B9B6903F004037B617B69D5
:101BD0004FF40073BB610223FB6101237B6207F1B9
:101BE00018031946354800F0FDFF4FF48063BB61D0
:101BF0000223FB6102237B6207F1180319462F4879
:101C000000F0F0FF52E07B681B682D4A934230D110
:101C1000294B9B69284A43F004039361264B9B6937
:101C200003F004033B613B69234B9B69224A43F069
:101C300008039361204B9B6903F00803FB60FB687A
:101C40008023BB610223FB6101237B6207F1180340
:101C500019461A4800F0C6FF0123BB610223FB614D
:101C600002237B6207F118031946164800F0BAFFF9
:101C70001CE07B681B68144A934217D10E4B9B698A
:101C80000D4A43F0080393610B4B9B6903F0080373
:101C9000BB60BB68C023BB610223FB6101237B6285
:101CA00007F118031946074800F09CFF00BF2837CA
:101CB000BD4680BD002C01400010024000080140DC
:101CC00000040040000C01400008004080B400AF58
:101CD00000BFFDE780B400AF00BFFDE780B400AFF8
:101CE00000BFFDE780B400AF00BFFDE780B400AFE8
:101CF00000BFFDE780B400AF00BFBD4680BC7047A9
:101D000080B400AF00BFBD4680BC704780B400AF58
:101D100000BFBD4680BC704780B500AF00F07EF8C4
:101D200000BF80BD80B500AF024800F027FE00BFB5
:101D300080BD00BF8400002080B400AF00BFBD465E
:101D400080BC7047FFF7F8FF0B480C490C4A002392
:101D500002E0D458C4500433C4188C42F9D3094A61
:101D6000094C002301E013600432A242FBD302F0CD
:101D700037FDFFF769F87047000000200C000020D5
:101D80006C4800080C000020FC010020FEE7000069
:101D900080B500AF084B1B68074A43F0100313607F
:101DA000032000F0EFFC0F2000F008F8FFF7FAFD29
:101DB0000023184680BD00BF0020024080B582B0DD
:101DC00000AF7860124B1A68124B1B7819464FF41B
:101DD0007A73B3FBF1F3B2FBF3F3184600F007FD9F
:101DE0000346002B01D001230EE07B680F2B0AD89D
:101DF000002279684FF0FF3000F0CFFC064A7B6884
:101E00001360002300E0012318460837BD4680BD5B
:101E100000000020080000200400002080B400AF73
:101E2000054B1B781A46054B1B681344034A136085
:101E300000BFBD4680BC704708000020F8010020AC
:101E400080B400AF024B1B681846BD4680BC70478B
:101E5000F801002080B586B000AF78600023FB75E4
:101E600000233B610023BB600023FB607B68002BE9
:101E700001D10123BEE07B689B68002B7B689B6AD5
:101E8000002B09D17B680022DA627B68002283F88C
:101E900024207868FFF7B8FD786800F0FFFA034661
:101EA000FB757B689B6A03F01003002B40F0998060
:101EB000FB7D002B40F095807B689B6A23F4885360
:101EC00023F0020343F002027B689A627B685A683F
:101ED0007B68DB691A437B681B7B5B001343BA6832
:101EE0001343BB607B689B68B3F5807F03D07B683E
:101EF0009B68012B02D14FF4807300E000233A6904
:101F000013433B617B681B7D012B19D17B681B7BD5
:101F1000002B09D17B689B69013B5A033B69134342
:101F200043F400633B610BE07B689B6A43F0200253
:101F30007B689A627B68DB6A43F001027B68DA6245
:101F40007B681B685B6823F469417B681B683A699E
:101F50000A435A607B681B689A68284B13407A686A
:101F60001268B9680B4393607B689B68B3F5807F08
:101F700003D07B689B68012B04D17B681B69013B04
:101F80001B05FB607B681B68DB6A23F470017B68C0
:101F90001B68FA680A43DA627B681B689A68184B08
:101FA0001340BA689A420BD17B680022DA627B68E0
:101FB0009B6A23F0030343F001027B689A6218E0F6
:101FC0007B689B6A23F0120343F010027B689A62DD
:101FD0007B68DB6A43F001027B68DA620123FB75F0
:101FE00007E07B689B6A43F010027B689A620123DA
:101FF000FB75FB7D18461837BD4680BDFDF7E1FF38
:10200000FE0E1FFF80B586B000AFF860B9607A6041
:102010000023FB75FB681B68644A934204D0FB688D
:102020001B68634A934206D1604B5B6803F47023DC
:10203000002B40F0B380FB6893F82430012B01D1D2
:102040000223AEE0FB68012283F82420F86800F048
:10205000CBF90346FB75FB7D002B40F09A80FB68B3
:102060009B6A23F4706323F0010343F48072FB68DE
:102070009A62FB681B684E4A934205D14B4B5B68E2
:1020800003F47023002B15D1FB689B6A23F48012A4
:10209000FB689A62FB681B685B6803F48063002B33
:1020A00026D0FB689B6A23F4405343F48052FB68BC
:1020B0009A621DE0FB689B6A43F48012FB689A6297
:1020C000FB681B68394A934204D0FB681B68384A96
:1020D00093420DD1354B5B6803F48063002B07D02E
:1020E000FB689B6A23F4405343F48052FB689A6276
:1020F000FB689B6A03F48053002B06D0FB68DB6A05
:1021000023F00602FB68DA6202E0FB680022DA6272
:10211000FB68002283F82420FB681B6A254A9A6228
:10212000FB681B6A244ADA62FB681B6A234A1A634B
:10213000FB681B686FF002021A60FB681B689A68F4
:10214000FB681B6842F480729A60FB68186AFB683F
:102150001B684C331946BA687B6800F0AFFBFB681C
:102160001B689B6803F46023B3F5602F08D1FB68FC
:102170001B689A68FB681B6842F4A0029A600FE033
:10218000FB681B689A68FB681B6842F480129A60BF
:1021900006E0FB68002283F8242001E00123FB75A0
:1021A000FB7D18461837BD4680BD00BF00240140A6
:1021B000002801401F2500089B250008B7250008BE
:1021C00080B483B000AF786000BF0C37BD4680BCE0
:1021D000704780B483B000AF786000BF0C37BD4655
:1021E00080BC704780B483B000AF786000BF0C370C
:1021F000BD4680BC7047000080B485B000AF7860F9
:1022000039600023FB730023BB607B6893F82430A4
:10221000012B01D10223DCE07B68012283F824201A
:102220003B685B68062B1CD87B681B68596B3B6856
:102230005A6813469B001344053B1F2202FA03F31E
:10224000DB4319403B6818683B685A6813469B009B
:102250001344053B00FA03F27B681B680A435A6388
:102260003CE03B685B680C2B1CD87B681B68196BD7
:102270003B685A6813469B001344233B1F2202FA13
:1022800003F3DB4319403B6818683B685A68134600
:102290009B001344233B00FA03F27B681B680A434C
:1022A0001A631BE07B681B68D96A3B685A6813464F
:1022B0009B001344413B1F2202FA03F3DB43194006
:1022C0003B6818683B685A6813469B001344413BBF
:1022D00000FA03F27B681B680A43DA623B681B68FA
:1022E000092B1CD97B681B68D9683B681A681346A0
:1022F0005B0013441E3B072202FA03F3DB43194041
:102300003B6898683B681A6813465B0013441E3BA1
:1023100000FA03F27B681B680A43DA6019E07B6805
:102320001B6819693B681A6813465B00134407224F
:1023300002FA03F3DB4319403B6898683B681A686C
:1023400013465B00134400FA03F27B681B680A43E0
:102350001A613B681B68102B03D03B681B68112B6C
:1023600032D17B681B681D4A934225D17B681B686C
:102370009B6803F40003002B26D17B681B689A68D6
:102380007B681B6842F400029A603B681B68102B54
:102390001AD1134B1B68134AA2FB03239A0C134652
:1023A0009B0013445B00BB6002E0BB68013BBB6069
:1023B000BB68002BF9D107E07B689B6A43F02002E1
:1023C0007B689A620123FB737B68002283F82420D8
:1023D000FB7B18461437BD4680BC70470024014083
:1023E0000000002083DE1B4380B584B000AF78601E
:1023F0000023FB600023BB607B681B689B6803F0C5
:102400000103012B40D07B681B689A687B681B68BE
:1024100042F001029A601F4B1B681F4AA2FB032374
:102420009B0CBB6002E0BB68013BBB60BB68002B40
:10243000F9D1FFF705FDF8601FE0FFF701FD024647
:10244000FB68D31A022B18D97B681B689B6803F0C2
:102450000103012B11D07B689B6A43F010027B685B
:102460009A627B68DB6A43F001027B68DA627B6810
:10247000002283F82420012307E07B681B689B6807
:1024800003F00103012BD8D1002318461037BD46B5
:1024900080BD00BF0000002083DE1B4380B584B0F8
:1024A00000AF78600023FB607B681B689B6803F0CB
:1024B0000103012B2ED17B681B689A687B681B681F
:1024C00022F001029A60FFF7BBFCF8601BE0FFF707
:1024D000B7FC0246FB68D31A022B14D97B681B6831
:1024E0009B6803F00103012B0DD17B689B6A43F0CD
:1024F00010027B689A627B68DB6A43F001027B68AA
:10250000DA62012307E07B681B689B6803F0010324
:10251000012BDCD0002318461037BD4680BD80B5A6
:1025200084B000AF78607B685B6AFB60FB689B6A85
:1025300003F05003002B27D1FB689B6A43F4007221
:10254000FB689A62FB681B689B6803F46023B3F521
:10255000602F15D1FB681B7B002B11D1FB689B6A98
:1025600023F48072FB689A62FB689B6A03F48053D1
:10257000002B05D1FB689B6A43F00102FB689A625D
:10258000F868FFF71DFE04E0FB681B6A1B6B7868A8
:10259000984700BF1037BD4680BD80B584B000AFFE
:1025A00078607B685B6AFB60F868FFF712FE00BF2B
:1025B0001037BD4680BD80B584B000AF78607B68C1
:1025C0005B6AFB60FB689B6A43F04002FB689A62AF
:1025D000FB68DB6A43F00402FB68DA62F868FFF725
:1025E00001FE00BF1037BD4680BD000080B485B03D
:1025F00000AF78607B6803F00703FB600C4BDB687F
:10260000BB60BA684FF6FF031340BB60FB681A0259
:10261000BB68134343F0BF6343F40033BB60044A19
:10262000BB68D36000BF1437BD4680BC704700BF95
:1026300000ED00E080B400AF044BDB681B0A03F040
:1026400007031846BD4680BC704700BF00ED00E0A0
:1026500080B483B000AF0346FB7197F90730002BBD
:102660000BDBFB7903F01F02064997F907305B0982
:10267000012000FA02F241F8232000BF0C37BD46CA
:1026800080BC704700E100E080B483B000AF034637
:102690003960FB7197F90730002B0ADB3B68DAB22F
:1026A0000C4997F907301201D2B20B4483F800238A
:1026B0000AE03B68DAB20849FB7903F00F03043BF8
:1026C0001201D2B20B441A7600BF0C37BD4680BC53
:1026D000704700BF00E100E000ED00E080B489B089
:1026E00000AFF860B9607A60FB6803F00703FB6134
:1026F000FB69C3F10703042B28BF0423BB61FB69FB
:102700000433062B02D9FB69033B00E000237B6105
:102710004FF0FF32BB6902FA03F3DA43BB681A4099
:102720007B699A404FF0FF317B6901FA03F3D9438B
:102730007B680B40134318462437BD4680BC704766
:1027400080B582B000AF78607B68013BB3F1807FD9
:1027500001D301230FE00A4A7B68013B53600F213C
:102760004FF0FF30FFF790FF054B00229A60044BBB
:1027700007221A60002318460837BD4680BD00BFF7
:1027800010E000E080B582B000AF78607868FFF7B5
:102790002DFF00BF0837BD4680BD80B586B000AFB5
:1027A0000346B9607A60FB7300237B61FFF742FF49
:1027B00078617A68B9687869FFF790FF024697F9FF
:1027C0000F3011461846FFF75FFF00BF1837BD46B0
:1027D00080BD80B582B000AF0346FB7197F907302A
:1027E0001846FFF735FF00BF0837BD4680BD80B5EE
:1027F00082B000AF78607868FFF7A2FF0346184602
:102800000837BD4680BD000080B485B000AF786059
:102810000023FB607B68002B01D1012343E07B6830
:102820001B681A46224B1344224AA2FB03231B09AE
:102830009A007B681A647B681F4ADA637B6802220D
:1028400083F821207B681B681B68FB60FB6823F40E
:102850007F5323F03003FB607B685A687B689B687A
:102860001A437B68DB681A437B681B691A437B68E1
:102870005B691A437B689B691A437B68DB69134376
:10288000FA681343FB607B681B68FA681A607B6810
:1028900000229A637B68012283F821207B68002252
:1028A00083F82020002318461437BD4680BC7047AB
:1028B000F8FFFDBFCDCCCCCC0000024080B586B087
:1028C00000AFF860B9607A603B600023FB75FB687D
:1028D00093F82030012B01D102234BE0FB68012249
:1028E00083F82020FB6893F82130DBB2012B3AD12A
:1028F000FB68022283F82120FB6800229A63FB68B0
:102900001B681A68FB681B6822F001021A603B68AA
:102910007A68B968F86800F037F9FB68DB6A002B61
:1029200008D0FB681B681A68FB681B6842F00E023F
:102930001A600FE0FB681B681A68FB681B6822F0CE
:1029400004021A60FB681B681A68FB681B6842F087
:102950000A021A60FB681B681A68FB681B6842F071
:1029600001021A6005E0FB68002283F820200223A0
:10297000FB75FB7D18461837BD4680BD80B584B019
:1029800000AF78607B68DB6B1B68FB607B681B6853
:102990001B68BB607B681B6C04229A40FB68134079
:1029A000002B4FD0BB6803F00403002B4AD07B6898
:1029B0001B681B6803F02003002B07D17B681B6892
:1029C0001A687B681B6822F004021A607B681B6827
:1029D000664A934229D07B681B68654A934222D09D
:1029E0007B681B68634A93421AD07B681B68624A03
:1029F000934212D07B681B68604A93420AD07B687E
:102A00001B685F4A934202D14FF480030EE04FF0FF
:102A100080630BE04FF4802308E04FF4804305E02F
:102A20004FF4806302E0402300E00423554A5360E2
:102A30007B68DB6A002B00F094807B68DB6A786837
:102A400098478EE07B681B6C02229A40FB6813401B
:102A5000002B56D0BB6803F00203002B51D07B68DB
:102A60001B681B6803F02003002B0BD17B681B68DD
:102A70001A687B681B6822F00A021A607B680122D0
:102A800083F821207B681B68384A934229D07B68F1
:102A90001B68374A934222D07B681B68354A9342B1
:102AA0001AD07B681B68344A934212D07B681B683B
:102AB000324A93420AD07B681B68314A934202D162
:102AC0004FF400130EE04FF000730BE04FF40033AF
:102AD00008E04FF4005305E04FF4007302E02023B8
:102AE00000E00223274A53607B68002283F82020FD
:102AF0007B689B6A002B34D07B689B6A7868984718
:102B00002FE07B681B6C08229A40FB681340002B67
:102B100028D0BB6803F00803002B23D07B681B6818
:102B20001A687B681B6822F00E021A607B681A6CB8
:102B30007B68DB6B012101FA02F25A607B6801229B
:102B40009A637B68012283F821207B68002283F846
:102B500020207B681B6B002B04D07B681B6B786884
:102B6000984700BF00BF1037BD4680BD0800024037
:102B70001C00024030000240440002405800024065
:102B80006C0002400000024080B485B000AFF860E5
:102B9000B9607A603B60FB681A6CFB68DB6B0121F3
:102BA00001FA02F25A60FB681B683A685A60FB68D7
:102BB0005B68102B08D1FB681B687A689A60FB6819
:102BC0001B68BA68DA6007E0FB681B68BA689A603D
:102BD000FB681B687A68DA6000BF1437BD4680BCAA
:102BE0007047000080B48BB000AF7860396000237C
:102BF0007B6200233B6269E101227B6A02FA03F3F4
:102C0000FB613B681B68FA691340BB61BA69FB69E9
:102C10009A4240F058813B685B689A4A93425ED082
:102C2000984A934275D8984A934258D0964A93420C
:102C30006FD8964A934252D0944A934269D8944AA4
:102C400093424CD0924A934263D8924A934246D0E0
:102C5000904A93425DD8122B2AD8122B59D801A240
:102C600052F823F0DF2C0008B92C0008CB2C000808
:102C70000D2D0008132D0008132D0008132D00083A
:102C8000132D0008132D0008132D0008132D000824
:102C9000132D0008132D0008132D0008132D000814
:102CA000132D0008132D0008C12C0008D52C000896
:102CB000794A934213D02CE03B68DB683B6229E001
:102CC0003B68DB6804333B6224E03B68DB68083325
:102CD0003B621FE03B68DB680C333B621AE03B68F9
:102CE0009B68002B02D104233B6213E03B689B6886
:102CF000012B05D108233B627B68FA691A6109E060
:102D000008233B627B68FA695A6103E000233B6257
:102D100000E000BFBB69FF2B01D87B6801E07B6846
:102D200004337B61BB69FF2B02D87B6A9B0002E006
:102D30007B6A083B9B003B617B691A680F213B69FA
:102D400001FA03F3DB431A40396A3B6901FA03F3E2
:102D50001A437B691A603B685B6803F08053002B61
:102D600000F0B1804D4B9B694C4A43F001039361E5
:102D70004A4B9B6903F00103BB60BB68484A7B6A0E
:102D80009B08023352F82330FB607B6A03F0030395
:102D90009B000F2202FA03F3DB43FA681340FB6047
:102DA0007B68404A934213D07B683F4A93420DD0E0
:102DB0007B683E4A934207D07B683D4A934201D1EB
:102DC000032306E0042304E0022302E0012300E0E1
:102DD00000237A6A02F0030292009340FA681343D8
:102DE000FB602F497B6A9B080233FA6841F8232075
:102DF0003B685B6803F48013002B06D02D4B9A6868
:102E00002C49BB6913438B6006E02A4B9A68BB6967
:102E1000DB43284913408B603B685B6803F4001375
:102E2000002B06D0234BDA682249BB691343CB60E1
:102E300006E0204BDA68BB69DB431E491340CB60D8
:102E40003B685B6803F40033002B06D0194B5A68CB
:102E50001849BB6913434B6006E0164B5A68BB69BF
:102E6000DB43144913404B603B685B6803F48033D9
:102E7000002B21D00F4B1A680E49BB6913430B601E
:102E800021E000BF000032100000311000002210CD
:102E9000000021100000121000001110001002406C
:102EA0000000014000080140000C014000100140FA
:102EB00000140140000401400B4B1A68BB69DB435E
:102EC000094913400B607B6A01337B623B681A68D7
:102ED0007B6A22FA03F3002B7FF48EAE00BF00BFA3
:102EE0002C37BD4680BC70470004014080B485B0DB
:102EF00000AF78600B467B807B689A687B881340C4
:102F0000002B02D00123FB7301E00023FB73FB7B4A
:102F100018461437BD4680BC704780B483B000AFFC
:102F200078600B467B8013467B707B78002B03D048
:102F30007A887B681A6103E07B881A047B681A61CF
:102F400000BF0C37BD4680BC7047000080B586B01E
:102F500000AF78607B68002B01D1012372E27B68AF
:102F60001B6803F00103002B00F08780924B5B6825
:102F700003F00C03042B0CD08F4B5B6803F00C03A5
:102F8000082B12D18C4B5B6803F48033B3F5803F80
:102F90000BD1894B1B6803F40033002B6CD07B688A
:102FA0005B68002B68D101234CE27B685B68B3F55A
:102FB000803F06D1804B1B687F4A43F48033136007
:102FC0002EE07B685B68002B0CD17B4B1B687A4A38
:102FD00023F480331360784B1B68774A23F48023F3
:102FE00013601DE07B685B68B3F5A02F0CD1724BBA
:102FF0001B68714A43F4802313606F4B1B686E4A51
:1030000043F4803313600BE06B4B1B686A4A23F474
:1030100080331360684B1B68674A23F48023136076
:103020007B685B68002B13D0FEF70AFF386108E06D
:10303000FEF706FF02463B69D31A642B01D903232E
:1030400000E25D4B1B6803F40033002BF0D014E06A
:10305000FEF7F6FE386108E0FEF7F2FE02463B6935
:10306000D31A642B01D90323ECE1534B1B6803F4FF
:103070000033002BF0D100E000BF7B681B6803F039
:103080000203002B63D04C4B5B6803F00C03002B56
:103090000BD0494B5B6803F00C03082B1CD1464B4B
:1030A0005B6803F48033002B16D1434B1B6803F09D
:1030B0000203002B05D07B681B69012B01D0012383
:1030C000C0E13D4B1B6823F0F8027B685B69DB00C5
:1030D000394913430B603AE07B681B69002B20D011
:1030E000364B01221A60FEF7ABFE386108E0FEF7AE
:1030F000A7FE02463B69D31A022B01D90323A1E1A3
:103100002D4B1B6803F00203002BF0D02A4B1B68E9
:1031100023F0F8027B685B69DB00274913430B60EF
:1031200015E0264B00221A60FEF78AFE386108E09F
:10313000FEF786FE02463B69D31A022B01D9032310
:1031400080E11D4B1B6803F00203002BF0D17B686C
:103150001B6803F00803002B3AD07B689B69002BA7
:1031600019D0174B01221A60FEF76AFE386108E099
:10317000FEF766FE02463B69D31A022B01D90323F0
:1031800060E10D4B5B6A03F00203002BF0D00120DD
:1031900000F09EFA1CE00A4B00221A60FEF750FE77
:1031A00038610FE0FEF74CFE02463B69D31A022B52
:1031B00008D9032346E100BF00100240000042424C
:1031C00080044242924B5B6A03F00203002BE9D178
:1031D0007B681B6803F00403002B00F0A68000232B
:1031E000FB758B4BDB6903F08053002B0DD1884BB3
:1031F000DB69874A43F08053D361854BDB6903F079
:103200008053BB60BB680123FB75824B1B6803F4D2
:103210008073002B18D17F4B1B687E4A43F4807368
:103220001360FEF70DFE386108E0FEF709FE024666
:103230003B69D31A642B01D9032303E1754B1B6847
:1032400003F48073002BF0D07B68DB68012B06D180
:103250006F4B1B6A6E4A43F0010313622DE07B68DB
:10326000DB68002B0CD16A4B1B6A694A23F001030F
:103270001362674B1B6A664A23F0040313621CE067
:103280007B68DB68052B0CD1614B1B6A604A43F0FD
:10329000040313625E4B1B6A5D4A43F00103136231
:1032A0000BE05B4B1B6A5A4A23F001031362584B35
:1032B0001B6A574A23F0040313627B68DB68002B08
:1032C00015D0FEF7BDFD38610AE0FEF7B9FD0246F4
:1032D0003B69D31A41F28832934201D90323B1E00A
:1032E0004B4B1B6A03F00203002BEED014E0FEF7F9
:1032F000A7FD38610AE0FEF7A3FD02463B69D31A39
:1033000041F28832934201D903239BE0404B1B6A70
:1033100003F00203002BEED1FB7D012B05D13C4BCA
:10332000DB693B4A23F08053D3617B68DB69002B68
:1033300000F08780364B5B6803F00C03082B61D0EC
:103340007B68DB69022B46D1334B00221A60FEF703
:1033500077FD386108E0FEF773FD02463B69D31A3A
:10336000022B01D903236DE0294B1B6803F0007386
:10337000002BF0D17B681B6AB3F5803F08D1244B4A
:103380005B6823F400327B689B68214913434B60E0
:103390001F4B5B6823F474127B68196A7B685B6A55
:1033A0000B431B4913434B601B4B01221A60FEF772
:1033B00047FD386108E0FEF743FD02463B69D31A3A
:1033C000022B01D903233DE0114B1B6803F000736E
:1033D000002BF0D035E0104B00221A60FEF730FDD4
:1033E000386108E0FEF72CFD02463B69D31A022B38
:1033F00001D9032326E0064B1B6803F00073002B62
:10340000F0D11EE07B68DB69012B07D1012319E0B5
:103410000010024000700040600042420B4B5B68AD
:10342000FB60FB6803F480327B681B6A9A4206D11A
:10343000FB6803F470127B685B6A9A4201D0012337
:1034400000E0002318461837BD4680BD001002403A
:1034500080B584B000AF786039607B68002B01D103
:103460000123D0E06A4B1B6803F007033A689A42D5
:1034700010D9674B1B6823F0070265493B6813436B
:103480000B60634B1B6803F007033A689A4201D054
:103490000123B8E07B681B6803F00203002B20D0F7
:1034A0007B681B6803F00403002B05D0594B5B6855
:1034B000584A43F4E06353607B681B6803F00803D9
:1034C000002B05D0534B5B68524A43F46053536062
:1034D000504B5B6823F0F0027B689B684D491343B7
:1034E0004B607B681B6803F00103002B40D07B68B6
:1034F0005B68012B07D1474B1B6803F40033002B9B
:1035000015D101237FE07B685B68022B07D1414B1B
:103510001B6803F00073002B09D1012373E03D4BBE
:103520001B6803F00203002B01D101236BE0394B30
:103530005B6823F003027B685B68364913434B608A
:10354000FEF77EFCF8600AE0FEF77AFC0246FB68B4
:10355000D31A41F28832934201D9032353E02D4B11
:103560005B6803F00C027B685B689B009A42EBD1BE
:10357000274B1B6803F007033A689A4210D2244B8A
:103580001B6823F0070222493B6813430B60204B62
:103590001B6803F007033A689A4201D0012332E026
:1035A0007B681B6803F00403002B08D0194B5B6891
:1035B00023F4E0627B68DB68164913434B607B6849
:1035C0001B6803F00803002B09D0124B5B6823F43F
:1035D00060527B681B69DB000E4913434B6000F0AF
:1035E00021F802460B4B5B681B0903F00F030A49E5
:1035F000CB5C22FA03F3094A1360094B1B68184697
:10360000FEF7DCFB002318461037BD4680BD00BF27
:103610000020024000100240404800080000002046
:103620000400002080B487B000AF0023FB600023BB
:10363000BB6000237B6100237B6000233B611E4B4A
:103640005B68FB60FB6803F00C03042B02D0082BC3
:1036500003D027E0194B3B6127E0FB689B0C03F08C
:103660000F03174AD35C7B60FB6803F48033002BA5
:1036700010D0114B5B685B0C03F00103114AD35C63
:10368000BB607B680D4A03FB02F2BB68B2FBF3F33D
:103690007B6104E07B680C4A02FB03F37B617B697E
:1036A0003B6102E0094B3B6100BF3B6918461C3798
:1036B000BD4680BC704700BF001002400024F400EB
:1036C000504800086048000800093D0000127A00D8
:1036D00080B485B000AF78600A4B1B680A4AA2FB31
:1036E00003235B0A7A6802FB03F3FB6000BFFB68FD
:1036F0005A1EFA60002BF9D100BF00BF1437BD4637
:1037000080BC704700000020D34D621080B586B0A9
:1037100000AF786000233B610023FB607B681B687F
:1037200003F00103002B7DD00023FB754F4BDB69B9
:1037300003F08053002B0DD14C4BDB694B4A43F017
:103740008053D361494BDB6903F08053BB60BB6896
:103750000123FB75464B1B6803F48073002B18D1C3
:10376000434B1B68424A43F480731360FEF768FBC7
:10377000386108E0FEF764FB02463B69D31A642B0C
:1037800001D903236DE03A4B1B6803F48073002BCF
:10379000F0D0364B1B6A03F44073FB60FB68002BD0
:1037A0002ED07B685B6803F44073FA689A4227D096
:1037B0002E4B1B6A23F44073FB602E4B01221A60D0
:1037C0002C4B00221A60294AFB681362FB6803F045
:1037D0000103002B14D0FEF733FB38610AE0FEF73B
:1037E0002FFB02463B69D31A41F28832934201D93A
:1037F000032336E01D4B1B6A03F00203002BEED0BF
:103800001A4B1B6A23F440727B685B6817491343A9
:103810000B62FB7D012B05D1144BDB69134A23F0AE
:103820008053D3617B681B6803F00203002B08D030
:103830000E4B5B6823F440427B689B680B49134343
:103840004B607B681B6803F01003002B08D0074B0C
:103850005B6823F480027B68DB68044913434B6098
:10386000002318461837BD4680BD00BF0010024037
:10387000007000404004424280B582B000AF7860E2
:103880007B68002B01D1012341E07B6893F83D3038
:10389000DBB2002B06D17B68002283F83C207868DD
:1038A000FEF71AF97B68022283F83D207B681A68CC
:1038B0007B6804331946104600F018FC7B6801222F
:1038C00083F846207B68012283F83E207B68012232
:1038D00083F83F207B68012283F840207B68012227
:1038E00083F841207B68012283F842207B68012213
:1038F00083F843207B68012283F844207B680122FF
:1039000083F845207B68012283F83D200023184678
:103910000837BD4680BD000080B485B000AF786038
:103920007B6893F83D30DBB2012B01D001233AE0F4
:103930007B68022283F83D207B681B68DA687B681D
:103940001B6842F00102DA607B681B68184A9342E8
:103950000ED07B681B68B3F1804F09D07B681B6871
:10396000144A934204D07B681B68134A934211D1D6
:103970007B681B689B6803F00703FB60FB68062BF2
:1039800010D07B681B681A687B681B6842F00102D4
:103990001A6007E07B681B681A687B681B6842F046
:1039A00001021A60002318461437BD4680BC7047D8
:1039B000002C0140000400400008004080B582B0A7
:1039C00000AF78607B68002B01D1012341E07B6868
:1039D00093F83D30DBB2002B06D17B68002283F8E0
:1039E0003C20786800F039F87B68022283F83D209B
:1039F0007B681A687B6804331946104600F076FB32
:103A00007B68012283F846207B68012283F83E20F0
:103A10007B68012283F83F207B68012283F84020E5
:103A20007B68012283F841207B68012283F84220D1
:103A30007B68012283F843207B68012283F84420BD
:103A40007B68012283F845207B68012283F83D20B2
:103A5000002318460837BD4680BD80B483B000AF50
:103A6000786000BF0C37BD4680BC704780B584B01D
:103A700000AF786039603B68002B09D17B6893F810
:103A80003E30DBB2012B14BF01230023DBB222E066
:103A90003B68042B09D17B6893F83F30DBB2012BE4
:103AA00014BF01230023DBB215E03B68082B09D1CA
:103AB0007B6893F84030DBB2012B14BF0123002355
:103AC000DBB208E07B6893F84130DBB2012B14BF16
:103AD00001230023DBB2002B01D001235EE03B6811
:103AE000002B04D17B68022283F83E2013E03B6860
:103AF000042B04D17B68022283F83F200BE03B6853
:103B0000082B04D17B68022283F8402003E07B6805
:103B1000022283F841207B681B680122396818461D
:103B200000F070FD7B681B681E4A934207D17B68DA
:103B30001B685A6C7B681B6842F400425A647B68BD
:103B40001B68184A93420ED07B681B68B3F1804F04
:103B500009D07B681B68144A934204D07B681B68B9
:103B6000124A934211D17B681B689B6803F00703DC
:103B7000FB60FB68062B10D07B681B681A687B68AB
:103B80001B6842F001021A6007E07B681B681A6834
:103B90007B681B6842F001021A6000231846103748
:103BA000BD4680BD002C01400004004000080040DC
:103BB00080B584B000AF78607B681B68DB68FB6011
:103BC0007B681B681B69BB60BB6803F00203002BAA
:103BD00020D0FB6803F00203002B1BD07B681B681E
:103BE0006FF002021A617B6801221A777B681B68FA
:103BF0009B6903F00303002B03D0786800F05AFAA6
:103C000005E0786800F04DFA786800F05CFA7B68AF
:103C100000221A77BB6803F00403002B20D0FB6856
:103C200003F00403002B1BD07B681B686FF00402B9
:103C30001A617B6802221A777B681B689B6903F410
:103C40004073002B03D0786800F034FA05E0786800
:103C500000F027FA786800F036FA7B6800221A77BD
:103C6000BB6803F00803002B20D0FB6803F00803B7
:103C7000002B1BD07B681B686FF008021A617B6801
:103C800004221A777B681B68DB6903F00303002BAF
:103C900003D0786800F00EFA05E0786800F001FAC9
:103CA000786800F010FA7B6800221A77BB6803F08E
:103CB0001003002B20D0FB6803F01003002B1BD057
:103CC0007B681B686FF010021A617B6808221A7704
:103CD0007B681B68DB6903F44073002B03D07868B2
:103CE00000F0E8F905E0786800F0DBF9786800F0AA
:103CF000EAF97B6800221A77BB6803F00103002B06
:103D00000CD0FB6803F00103002B07D07B681B6815
:103D10006FF001021A617868FDF70EFEBB6803F0D0
:103D20008003002B0CD0FB6803F08003002B07D02E
:103D30007B681B686FF080021A61786800F03EFDB6
:103D4000BB6803F04003002B0CD0FB6803F040037A
:103D5000002B07D07B681B686FF040021A617868FF
:103D600000F0BAF9BB6803F02003002B0CD0FB680D
:103D700003F02003002B07D07B681B686FF0200244
:103D80001A61786800F011FD00BF1037BD4680BD94
:103D900080B586B000AFF860B9607A600023FB752B
:103DA000FB6893F83C30012B01D10223AEE0FB68A5
:103DB000012283F83C207B680C2B00F29F8001A23B
:103DC00052F823F0F93D0008FD3E0008FD3E0008D2
:103DD000FD3E0008393E0008FD3E0008FD3E00089B
:103DE000FD3E00087B3E0008FD3E0008FD3E000849
:103DF000FD3E0008BB3E0008FB681B68B96818461A
:103E000000F0E2F9FB681B689A69FB681B6842F0E6
:103E100008029A61FB681B689A69FB681B6822F0BC
:103E200004029A61FB681B689969BB681A69FB68A0
:103E30001B680A439A6164E0FB681B68B96818460E
:103E400000F028FAFB681B689A69FB681B6842F45B
:103E500000629A61FB681B689A69FB681B6822F420
:103E600080629A61FB681B689969BB681B691A02CA
:103E7000FB681B680A439A6143E0FB681B68B968EA
:103E8000184600F071FAFB681B68DA69FB681B686A
:103E900042F00802DA61FB681B68DA69FB681B689C
:103EA00022F00402DA61FB681B68D969BB681A69F1
:103EB000FB681B680A43DA6123E0FB681B68B9688A
:103EC000184600F0BBFAFB681B68DA69FB681B68E0
:103ED00042F40062DA61FB681B68DA69FB681B6800
:103EE00022F48062DA61FB681B68D969BB681B69D0
:103EF0001A02FB681B680A43DA6102E00123FB75C2
:103F000000BFFB68002283F83C20FB7D1846183771
:103F1000BD4680BD80B584B000AF786039600023B5
:103F2000FB737B6893F83C30012B01D10223B4E092
:103F30007B68012283F83C207B68022283F83D20C5
:103F40007B681B689B68BB60BB6823F07703BB6022
:103F5000BB6823F47F43BB607B681B68BA689A60C8
:103F60003B681B68B3F5005F3ED0B3F5005F00F21D
:103F70008780B3F5805F00F08680B3F5805F7FD8DF
:103F8000702B1AD0702B7BD8602B50D0602B77D839
:103F9000502B3CD0502B73D8402B58D0402B6FD88F
:103FA000302B64D0302B6BD8202B60D0202B67D8DF
:103FB000002B5CD0102B5AD062E07B6818683B68FD
:103FC00099683B685A683B68DB6800F0FCFA7B68DC
:103FD0001B689B68BB60BB6843F07703BB607B6872
:103FE0001B68BA689A604FE07B6818683B689968FC
:103FF0003B685A683B68DB6800F0E5FA7B681B6841
:104000009A687B681B6842F480429A603CE07B6857
:1040100018683B6859683B68DB681A4600F05CFA30
:104020007B681B685021184600F0B3FA2CE07B68CF
:1040300018683B6859683B68DB681A4600F07AFAF2
:104040007B681B686021184600F0A3FA1CE07B68BF
:1040500018683B6859683B68DB681A4600F03CFA10
:104060007B681B684021184600F093FA0CE07B68DF
:104070001A683B681B681946104600F08AFA03E08C
:104080000123FB7300E000BF7B68012283F83D2021
:104090007B68002283F83C20FB7B18461037BD4626
:1040A00080BD80B483B000AF786000BF0C37BD46E0
:1040B00080BC704780B483B000AF786000BF0C371D
:1040C000BD4680BC704780B483B000AF786000BF4D
:1040D0000C37BD4680BC704780B483B000AF7860B9
:1040E00000BF0C37BD4680BC7047000080B485B06F
:1040F00000AF786039607B681B68FB607B682F4A83
:1041000093420BD07B68B3F1804F07D07B682C4A79
:10411000934203D07B682B4A934208D1FB6823F07B
:104120007003FB603B685B68FA681343FB607B6865
:10413000224A93420BD07B68B3F1804F07D07B6853
:104140001F4A934203D07B681E4A934208D1FB6802
:1041500023F44073FB603B68DB68FA681343FB6041
:10416000FB6823F080023B685B691343FB607B685C
:10417000FA681A603B689A687B68DA623B681A687A
:104180007B689A627B680D4A934203D13B681A6947
:104190007B681A637B6801225A617B681B6903F0A4
:1041A0000103002B05D07B681B6923F001027B68AB
:1041B0001A6100BF1437BD4680BC7047002C014017
:1041C000000400400008004080B487B000AF786071
:1041D00039607B681B6A7B617B681B6A23F0010284
:1041E0007B681A627B685B683B617B689B69FB60EC
:1041F000FB6823F07003FB60FB6823F00303FB60A4
:104200003B681B68FA681343FB607B6923F0020379
:104210007B613B689B687A6913437B617B681C4ABE
:1042200093420CD17B6923F008037B613B68DB6818
:104230007A6913437B617B6923F004037B617B68AC
:10424000134A934211D13B6923F480733B613B696C
:1042500023F400733B613B685B693A6913433B613C
:104260003B689B693A6913433B617B683A695A60D2
:104270007B68FA689A613B685A687B685A637B6816
:104280007A691A6200BF1C37BD4680BC704700BF08
:10429000002C014080B487B000AF786039607B6843
:1042A0001B6A7B617B681B6A23F010027B681A62C1
:1042B0007B685B683B617B689B69FB60FB6823F400
:1042C000E043FB60FB6823F44073FB603B681B68C2
:1042D0001B02FA681343FB607B6923F020037B61B8
:1042E0003B689B681B017A6913437B617B681D4AAD
:1042F00093420DD17B6923F080037B613B68DB68CF
:104300001B017A6913437B617B6923F040037B6166
:104310007B68144A934213D13B6923F480633B6169
:104320003B6923F400633B613B685B699B003A692E
:1043300013433B613B689B699B003A6913433B61B4
:104340007B683A695A607B68FA689A613B685A6888
:104350007B689A637B687A691A6200BF1C37BD4626
:1043600080BC7047002C014080B487B000AF7860FB
:1043700039607B681B6A7B617B681B6A23F48072EF
:104380007B681A627B685B683B617B68DB69FB600A
:10439000FB6823F07003FB60FB6823F00303FB6002
:1043A0003B681B68FA681343FB607B6923F4007366
:1043B0007B613B689B681B027A6913437B617B6866
:1043C0001D4A93420DD17B6923F400637B613B68F6
:1043D000DB681B027A6913437B617B6923F480638A
:1043E0007B617B68144A934213D13B6923F4805369
:1043F0003B613B6923F400533B613B685B691B01F4
:104400003A6913433B613B689B691B013A6913435B
:104410003B617B683A695A607B68FA68DA613B689D
:104420005A687B68DA637B687A691A6200BF1C3756
:10443000BD4680BC704700BF002C014080B487B0EF
:1044400000AF786039607B681B6A3B617B681B6AE0
:1044500023F480527B681A627B685B687B617B68AF
:10446000DB69FB60FB6823F4E043FB60FB6823F43B
:104470004073FB603B681B681B02FA681343FB60D8
:104480003B6923F400533B613B689B681B033A691B
:1044900013433B617B680F4A934209D17B6923F444
:1044A00080437B613B685B699B017A6913437B6155
:1044B0007B687A695A607B68FA68DA613B685A6897
:1044C0007B681A647B683A691A6200BF1C37BD4674
:1044D00080BC7047002C014080B487B000AFF8600A
:1044E000B9607A60FB681B6A7B61FB681B6A23F01A
:1044F0000102FB681A62FB689B693B613B6923F020
:10450000F0033B617B681B013A6913433B617B69A4
:1045100023F00A037B617A69BB6813437B61FB6804
:104520003A699A61FB687A691A6200BF1C37BD4616
:1045300080BC704780B487B000AFF860B9607A6023
:10454000FB681B6A7B61FB681B6A23F01002FB6837
:104550001A62FB689B693B613B6923F470433B61D2
:104560007B681B033A6913433B617B6923F0A0031B
:104570007B61BB681B017A6913437B61FB683A6905
:104580009A61FB687A691A6200BF1C37BD4680BC1D
:10459000704780B485B000AF786039607B689B68F5
:1045A000FB60FB6823F07003FB603A68FB68134311
:1045B00043F00703FB607B68FA689A6000BF14371A
:1045C000BD4680BC704780B487B000AFF860B9606A
:1045D0007A603B60FB689B687B617B6923F47F4367
:1045E0007B613B681A027B681A43BB6813437A6994
:1045F00013437B61FB687A699A6000BF1C37BD4634
:1046000080BC704780B487B000AFF860B9607A6052
:10461000BB6803F01F03012202FA03F37B61FB680E
:104620001A6A7B69DB431A40FB681A62FB681A6AE4
:10463000BB6803F01F03796801FA03F31A43FB68B0
:104640001A6200BF1C37BD4680BC704780B485B07D
:1046500000AF786039607B6893F83C30012B01D162
:10466000022346E07B68012283F83C207B6802221B
:1046700083F83D207B681B685B68FB607B681B6878
:104680009B68BB60FB6823F07003FB603B681B68A2
:10469000FA681343FB607B681B68FA685A607B68A2
:1046A0001B68164A93420ED07B681B68B3F1804F9B
:1046B00009D07B681B68124A934204D07B681B6850
:1046C000104A93420CD1BB6823F08003BB603B6867
:1046D0005B68BA681343BB607B681B68BA689A6002
:1046E0007B68012283F83D207B68002283F83C2010
:1046F000002318461437BD4680BC7047002C01408B
:10470000000400400008004080B485B000AF78602D
:1047100039600023FB607B6893F83C30012B01D1AA
:1047200002233DE07B68012283F83C20FB6823F0F4
:10473000FF023B68DB681343FB60FB6823F44072B5
:104740003B689B681343FB60FB6823F480623B6813
:104750005B681343FB60FB6823F400623B681B68E3
:104760001343FB60FB6823F480523B681B691343CF
:10477000FB60FB6823F400523B685B691343FB60FA
:10478000FB6823F480423B68DB691343FB607B6872
:104790001B68FA685A647B68002283F83C20002377
:1047A00018461437BD4680BC704780B483B000AF54
:1047B000786000BF0C37BD4680BC704780B483B0C2
:1047C00000AF786000BF0C37BD4680BC7047034621
:1047D0000244934200D1704703F8011BF9E700003F
:1047E00070B500260C4D0D4C641BA410A64209D1D7
:1047F00000F01AF800260A4D0A4C641BA410A642C9
:1048000005D170BD55F8043B98470136EEE755F8E1
:10481000043B98470136F2E7644800086448000802
:104820006448000868480008F8B500BFF8BC08BC38
:104830009E467047F8B500BFF8BC08BC9E4670475E
:104840000000000000000000010203040607080940
:1048500002030405060708090A0B0C0D0E0F1010C1
:044860000102000051
:044864003501000812
:044868001101000832
:0C486C0000127A001000000001000000A3
:0400000508001D458D
:00000001FF
